{
  "_format": "hh-sol-artifact-1",
  "contractName": "OpenResolver",
  "sourceName": "contracts/OpenResolver.sol",
  "abi": [
    {
      "anonymous": false,
      "inputs": [
        {
          "indexed": true,
          "internalType": "bytes32",
          "name": "node",
          "type": "bytes32"
        },
        {
          "indexed": true,
          "internalType": "uint256",
          "name": "contentType",
          "type": "uint256"
        }
      ],
      "name": "ABIChanged",
      "type": "event"
    },
    {
      "anonymous": false,
      "inputs": [
        {
          "indexed": true,
          "internalType": "bytes32",
          "name": "node",
          "type": "bytes32"
        },
        {
          "indexed": false,
          "internalType": "address",
          "name": "a",
          "type": "address"
        }
      ],
      "name": "AddrChanged",
      "type": "event"
    },
    {
      "anonymous": false,
      "inputs": [
        {
          "indexed": true,
          "internalType": "bytes32",
          "name": "node",
          "type": "bytes32"
        },
        {
          "indexed": false,
          "internalType": "uint256",
          "name": "coinType",
          "type": "uint256"
        },
        {
          "indexed": false,
          "internalType": "bytes",
          "name": "newAddress",
          "type": "bytes"
        }
      ],
      "name": "AddressChanged",
      "type": "event"
    },
    {
      "anonymous": false,
      "inputs": [
        {
          "indexed": true,
          "internalType": "bytes32",
          "name": "node",
          "type": "bytes32"
        },
        {
          "indexed": false,
          "internalType": "bytes",
          "name": "hash",
          "type": "bytes"
        }
      ],
      "name": "ContenthashChanged",
      "type": "event"
    },
    {
      "anonymous": false,
      "inputs": [
        {
          "indexed": true,
          "internalType": "bytes32",
          "name": "node",
          "type": "bytes32"
        },
        {
          "indexed": false,
          "internalType": "bytes",
          "name": "name",
          "type": "bytes"
        },
        {
          "indexed": false,
          "internalType": "uint16",
          "name": "resource",
          "type": "uint16"
        },
        {
          "indexed": false,
          "internalType": "bytes",
          "name": "record",
          "type": "bytes"
        }
      ],
      "name": "DNSRecordChanged",
      "type": "event"
    },
    {
      "anonymous": false,
      "inputs": [
        {
          "indexed": true,
          "internalType": "bytes32",
          "name": "node",
          "type": "bytes32"
        },
        {
          "indexed": false,
          "internalType": "bytes",
          "name": "name",
          "type": "bytes"
        },
        {
          "indexed": false,
          "internalType": "uint16",
          "name": "resource",
          "type": "uint16"
        }
      ],
      "name": "DNSRecordDeleted",
      "type": "event"
    },
    {
      "anonymous": false,
      "inputs": [
        {
          "indexed": true,
          "internalType": "bytes32",
          "name": "node",
          "type": "bytes32"
        },
        {
          "indexed": false,
          "internalType": "bytes",
          "name": "lastzonehash",
          "type": "bytes"
        },
        {
          "indexed": false,
          "internalType": "bytes",
          "name": "zonehash",
          "type": "bytes"
        }
      ],
      "name": "DNSZonehashChanged",
      "type": "event"
    },
    {
      "anonymous": false,
      "inputs": [
        {
          "indexed": true,
          "internalType": "bytes32",
          "name": "node",
          "type": "bytes32"
        },
        {
          "indexed": true,
          "internalType": "bytes4",
          "name": "interfaceID",
          "type": "bytes4"
        },
        {
          "indexed": false,
          "internalType": "address",
          "name": "implementer",
          "type": "address"
        }
      ],
      "name": "InterfaceChanged",
      "type": "event"
    },
    {
      "anonymous": false,
      "inputs": [
        {
          "indexed": true,
          "internalType": "bytes32",
          "name": "node",
          "type": "bytes32"
        },
        {
          "indexed": false,
          "internalType": "string",
          "name": "name",
          "type": "string"
        }
      ],
      "name": "NameChanged",
      "type": "event"
    },
    {
      "anonymous": false,
      "inputs": [
        {
          "indexed": true,
          "internalType": "bytes32",
          "name": "node",
          "type": "bytes32"
        },
        {
          "indexed": false,
          "internalType": "bytes32",
          "name": "x",
          "type": "bytes32"
        },
        {
          "indexed": false,
          "internalType": "bytes32",
          "name": "y",
          "type": "bytes32"
        }
      ],
      "name": "PubkeyChanged",
      "type": "event"
    },
    {
      "anonymous": false,
      "inputs": [
        {
          "indexed": true,
          "internalType": "bytes32",
          "name": "node",
          "type": "bytes32"
        },
        {
          "indexed": true,
          "internalType": "string",
          "name": "indexedKey",
          "type": "string"
        },
        {
          "indexed": false,
          "internalType": "string",
          "name": "key",
          "type": "string"
        },
        {
          "indexed": false,
          "internalType": "string",
          "name": "value",
          "type": "string"
        }
      ],
      "name": "TextChanged",
      "type": "event"
    },
    {
      "anonymous": false,
      "inputs": [
        {
          "indexed": true,
          "internalType": "bytes32",
          "name": "node",
          "type": "bytes32"
        },
        {
          "indexed": false,
          "internalType": "uint64",
          "name": "newVersion",
          "type": "uint64"
        }
      ],
      "name": "VersionChanged",
      "type": "event"
    },
    {
      "inputs": [
        {
          "internalType": "bytes32",
          "name": "node",
          "type": "bytes32"
        },
        {
          "internalType": "uint256",
          "name": "contentTypes",
          "type": "uint256"
        }
      ],
      "name": "ABI",
      "outputs": [
        {
          "internalType": "uint256",
          "name": "",
          "type": "uint256"
        },
        {
          "internalType": "bytes",
          "name": "",
          "type": "bytes"
        }
      ],
      "stateMutability": "view",
      "type": "function"
    },
    {
      "inputs": [
        {
          "internalType": "bytes32",
          "name": "node",
          "type": "bytes32"
        }
      ],
      "name": "addr",
      "outputs": [
        {
          "internalType": "address payable",
          "name": "",
          "type": "address"
        }
      ],
      "stateMutability": "view",
      "type": "function"
    },
    {
      "inputs": [
        {
          "internalType": "bytes32",
          "name": "node",
          "type": "bytes32"
        },
        {
          "internalType": "uint256",
          "name": "coinType",
          "type": "uint256"
        }
      ],
      "name": "addr",
      "outputs": [
        {
          "internalType": "bytes",
          "name": "",
          "type": "bytes"
        }
      ],
      "stateMutability": "view",
      "type": "function"
    },
    {
      "inputs": [
        {
          "internalType": "bytes32",
          "name": "node",
          "type": "bytes32"
        }
      ],
      "name": "clearRecords",
      "outputs": [],
      "stateMutability": "nonpayable",
      "type": "function"
    },
    {
      "inputs": [
        {
          "internalType": "bytes32",
          "name": "node",
          "type": "bytes32"
        }
      ],
      "name": "contenthash",
      "outputs": [
        {
          "internalType": "bytes",
          "name": "",
          "type": "bytes"
        }
      ],
      "stateMutability": "view",
      "type": "function"
    },
    {
      "inputs": [
        {
          "internalType": "bytes32",
          "name": "node",
          "type": "bytes32"
        },
        {
          "internalType": "bytes32",
          "name": "name",
          "type": "bytes32"
        },
        {
          "internalType": "uint16",
          "name": "resource",
          "type": "uint16"
        }
      ],
      "name": "dnsRecord",
      "outputs": [
        {
          "internalType": "bytes",
          "name": "",
          "type": "bytes"
        }
      ],
      "stateMutability": "view",
      "type": "function"
    },
    {
      "inputs": [
        {
          "internalType": "bytes32",
          "name": "node",
          "type": "bytes32"
        },
        {
          "internalType": "bytes32",
          "name": "name",
          "type": "bytes32"
        }
      ],
      "name": "hasDNSRecords",
      "outputs": [
        {
          "internalType": "bool",
          "name": "",
          "type": "bool"
        }
      ],
      "stateMutability": "view",
      "type": "function"
    },
    {
      "inputs": [
        {
          "internalType": "bytes32",
          "name": "node",
          "type": "bytes32"
        },
        {
          "internalType": "bytes4",
          "name": "interfaceID",
          "type": "bytes4"
        }
      ],
      "name": "interfaceImplementer",
      "outputs": [
        {
          "internalType": "address",
          "name": "",
          "type": "address"
        }
      ],
      "stateMutability": "view",
      "type": "function"
    },
    {
      "inputs": [
        {
          "internalType": "bytes32",
          "name": "node",
          "type": "bytes32"
        }
      ],
      "name": "name",
      "outputs": [
        {
          "internalType": "string",
          "name": "",
          "type": "string"
        }
      ],
      "stateMutability": "view",
      "type": "function"
    },
    {
      "inputs": [
        {
          "internalType": "bytes32",
          "name": "node",
          "type": "bytes32"
        }
      ],
      "name": "pubkey",
      "outputs": [
        {
          "internalType": "bytes32",
          "name": "x",
          "type": "bytes32"
        },
        {
          "internalType": "bytes32",
          "name": "y",
          "type": "bytes32"
        }
      ],
      "stateMutability": "view",
      "type": "function"
    },
    {
      "inputs": [
        {
          "internalType": "bytes32",
          "name": "",
          "type": "bytes32"
        }
      ],
      "name": "recordVersions",
      "outputs": [
        {
          "internalType": "uint64",
          "name": "",
          "type": "uint64"
        }
      ],
      "stateMutability": "view",
      "type": "function"
    },
    {
      "inputs": [
        {
          "internalType": "bytes",
          "name": "",
          "type": "bytes"
        },
        {
          "internalType": "bytes",
          "name": "data",
          "type": "bytes"
        }
      ],
      "name": "resolve",
      "outputs": [
        {
          "internalType": "bytes",
          "name": "",
          "type": "bytes"
        }
      ],
      "stateMutability": "view",
      "type": "function"
    },
    {
      "inputs": [
        {
          "internalType": "bytes32",
          "name": "node",
          "type": "bytes32"
        },
        {
          "internalType": "uint256",
          "name": "contentType",
          "type": "uint256"
        },
        {
          "internalType": "bytes",
          "name": "data",
          "type": "bytes"
        }
      ],
      "name": "setABI",
      "outputs": [],
      "stateMutability": "nonpayable",
      "type": "function"
    },
    {
      "inputs": [
        {
          "internalType": "bytes32",
          "name": "node",
          "type": "bytes32"
        },
        {
          "internalType": "uint256",
          "name": "coinType",
          "type": "uint256"
        },
        {
          "internalType": "bytes",
          "name": "a",
          "type": "bytes"
        }
      ],
      "name": "setAddr",
      "outputs": [],
      "stateMutability": "nonpayable",
      "type": "function"
    },
    {
      "inputs": [
        {
          "internalType": "bytes32",
          "name": "node",
          "type": "bytes32"
        },
        {
          "internalType": "address",
          "name": "a",
          "type": "address"
        }
      ],
      "name": "setAddr",
      "outputs": [],
      "stateMutability": "nonpayable",
      "type": "function"
    },
    {
      "inputs": [
        {
          "internalType": "bytes32",
          "name": "node",
          "type": "bytes32"
        },
        {
          "internalType": "bytes",
          "name": "hash",
          "type": "bytes"
        }
      ],
      "name": "setContenthash",
      "outputs": [],
      "stateMutability": "nonpayable",
      "type": "function"
    },
    {
      "inputs": [
        {
          "internalType": "bytes32",
          "name": "node",
          "type": "bytes32"
        },
        {
          "internalType": "bytes",
          "name": "data",
          "type": "bytes"
        }
      ],
      "name": "setDNSRecords",
      "outputs": [],
      "stateMutability": "nonpayable",
      "type": "function"
    },
    {
      "inputs": [
        {
          "internalType": "bytes32",
          "name": "node",
          "type": "bytes32"
        },
        {
          "internalType": "bytes4",
          "name": "interfaceID",
          "type": "bytes4"
        },
        {
          "internalType": "address",
          "name": "implementer",
          "type": "address"
        }
      ],
      "name": "setInterface",
      "outputs": [],
      "stateMutability": "nonpayable",
      "type": "function"
    },
    {
      "inputs": [
        {
          "internalType": "bytes32",
          "name": "node",
          "type": "bytes32"
        },
        {
          "internalType": "string",
          "name": "newName",
          "type": "string"
        }
      ],
      "name": "setName",
      "outputs": [],
      "stateMutability": "nonpayable",
      "type": "function"
    },
    {
      "inputs": [
        {
          "internalType": "bytes32",
          "name": "node",
          "type": "bytes32"
        },
        {
          "internalType": "bytes32",
          "name": "x",
          "type": "bytes32"
        },
        {
          "internalType": "bytes32",
          "name": "y",
          "type": "bytes32"
        }
      ],
      "name": "setPubkey",
      "outputs": [],
      "stateMutability": "nonpayable",
      "type": "function"
    },
    {
      "inputs": [
        {
          "internalType": "bytes32",
          "name": "node",
          "type": "bytes32"
        },
        {
          "internalType": "string",
          "name": "key",
          "type": "string"
        },
        {
          "internalType": "string",
          "name": "value",
          "type": "string"
        }
      ],
      "name": "setText",
      "outputs": [],
      "stateMutability": "nonpayable",
      "type": "function"
    },
    {
      "inputs": [
        {
          "internalType": "bytes32",
          "name": "node",
          "type": "bytes32"
        },
        {
          "internalType": "bytes",
          "name": "hash",
          "type": "bytes"
        }
      ],
      "name": "setZonehash",
      "outputs": [],
      "stateMutability": "nonpayable",
      "type": "function"
    },
    {
      "inputs": [
        {
          "internalType": "bytes4",
          "name": "interfaceID",
          "type": "bytes4"
        }
      ],
      "name": "supportsInterface",
      "outputs": [
        {
          "internalType": "bool",
          "name": "",
          "type": "bool"
        }
      ],
      "stateMutability": "view",
      "type": "function"
    },
    {
      "inputs": [
        {
          "internalType": "bytes32",
          "name": "node",
          "type": "bytes32"
        },
        {
          "internalType": "string",
          "name": "key",
          "type": "string"
        }
      ],
      "name": "text",
      "outputs": [
        {
          "internalType": "string",
          "name": "",
          "type": "string"
        }
      ],
      "stateMutability": "view",
      "type": "function"
    },
    {
      "inputs": [
        {
          "internalType": "bytes32",
          "name": "node",
          "type": "bytes32"
        }
      ],
      "name": "zonehash",
      "outputs": [
        {
          "internalType": "bytes",
          "name": "",
          "type": "bytes"
        }
      ],
      "stateMutability": "view",
      "type": "function"
    }
  ],
  "bytecode": "0x608060405234801561001057600080fd5b506141f4806100206000396000f3fe608060405234801561001057600080fd5b50600436106101735760003560e01c8063623195b0116100de578063bc1c58d111610097578063d5fa2b0011610071578063d5fa2b00146104b6578063d700ff33146104d2578063e59d895d14610502578063f1cb7e061461051e57610173565b8063bc1c58d114610439578063c869023314610469578063ce3decdc1461049a57610173565b8063623195b014610355578063691f34311461037157806377372213146103a15780638b95dd71146103bd5780639061b923146103d9578063a8fa56821461040957610173565b8063304e6ade11610130578063304e6ade1461025d5780633603d758146102795780633b3b57de146102955780634cbf6ba4146102c557806359d1d43c146102f55780635c98042b1461032557610173565b806301ffc9a7146101785780630af179d7146101a857806310f13a8c146101c4578063124a319c146101e05780632203ab561461021057806329cd62ea14610241575b600080fd5b610192600480360381019061018d9190612e1b565b61054e565b60405161019f9190612e63565b60405180910390f35b6101c260048036038101906101bd9190612f19565b610560565b005b6101de60048036038101906101d99190612fcf565b6107bf565b005b6101fa60048036038101906101f59190613064565b6108bc565b60405161020791906130e5565b60405180910390f35b61022a60048036038101906102259190613136565b610d17565b604051610238929190613215565b60405180910390f35b61025b60048036038101906102569190613245565b610e97565b005b61027760048036038101906102729190612f19565b610f74565b005b610293600480360381019061028e9190613298565b611035565b005b6102af60048036038101906102aa9190613298565b611107565b6040516102bc91906132e6565b60405180910390f35b6102df60048036038101906102da9190613301565b61113c565b6040516102ec9190612e63565b60405180910390f35b61030f600480360381019061030a9190613341565b6111cb565b60405161031c91906133f6565b60405180910390f35b61033f600480360381019061033a9190613298565b6112db565b60405161034c9190613418565b60405180910390f35b61036f600480360381019061036a919061343a565b6113cb565b005b61038b60048036038101906103869190613298565b6114ad565b60405161039891906133f6565b60405180910390f35b6103bb60048036038101906103b69190613341565b61159d565b005b6103d760048036038101906103d291906135de565b61165e565b005b6103f360048036038101906103ee919061364d565b611777565b6040516104009190613418565b60405180910390f35b610423600480360381019061041e91906136ff565b611804565b6040516104309190613418565b60405180910390f35b610453600480360381019061044e9190613298565b611920565b6040516104609190613418565b60405180910390f35b610483600480360381019061047e9190613298565b611a10565b604051610491929190613761565b60405180910390f35b6104b460048036038101906104af9190612f19565b611ac0565b005b6104d060048036038101906104cb91906137b6565b611c4f565b005b6104ec60048036038101906104e79190613298565b611c7b565b6040516104f99190613819565b60405180910390f35b61051c60048036038101906105179190613834565b611ca2565b005b61053860048036038101906105339190613136565b611dff565b6040516105459190613418565b60405180910390f35b600061055982611f01565b9050919050565b8261056a81611f7b565b61057357600080fd5b6000806060806000806000808b815260200190815260200160002060009054906101000a900467ffffffffffffffff16905060006105ff60008b8b8080601f016020809104026020016040519081016040528093929190818152602001838380828437600081840152601f19601f82011690508083019250505050505050611f8690919063ffffffff16565b90505b61060b81611fb0565b6107415760008761ffff1603610666578060400151965061062b81611fc6565b94508460405160200161063e91906138c3565b60405160208183030381529060405280519060200120925061065f81611ffd565b9350610733565b600061067182611fc6565b9050816040015161ffff168861ffff1614158061069e575061069c818761203690919063ffffffff16565b155b156107315761070a8c878a8e8e8080601f016020809104026020016040519081016040528093929190818152602001838380828437600081840152601f19601f820116905080830192505050505050508b8c88602001516106ff9190613909565b60008c51148a61205d565b81604001519750816020015196508095508580519060200120935061072e82611ffd565b94505b505b61073c816123e0565b610602565b506000845111156107b3576107b28a85888c8c8080601f016020809104026020016040519081016040528093929190818152602001838380828437600081840152601f19601f82011690508083019250505050505050898a8f8f90506107a79190613909565b60008a51148861205d565b5b50505050505050505050565b846107c981611f7b565b6107d257600080fd5b8282600a60008060008b815260200190815260200160002060009054906101000a900467ffffffffffffffff1667ffffffffffffffff1667ffffffffffffffff1681526020019081526020016000206000898152602001908152602001600020878760405161084292919061396d565b9081526020016040518091039020918261085d929190613b9d565b50848460405161086e92919061396d565b6040518091039020867f448bc014f1536726cf8d54ff3d6481ed3cbc683c2591ca204274009afa09b1a1878787876040516108ac9493929190613c9a565b60405180910390a3505050505050565b6000806007600080600087815260200190815260200160002060009054906101000a900467ffffffffffffffff1667ffffffffffffffff1667ffffffffffffffff16815260200190815260200160002060008581526020019081526020016000206000847bffffffffffffffffffffffffffffffffffffffffffffffffffffffff19167bffffffffffffffffffffffffffffffffffffffffffffffffffffffff1916815260200190815260200160002060009054906101000a900473ffffffffffffffffffffffffffffffffffffffff169050600073ffffffffffffffffffffffffffffffffffffffff168173ffffffffffffffffffffffffffffffffffffffff16146109cc5780915050610d11565b60006109d785611107565b9050600073ffffffffffffffffffffffffffffffffffffffff168173ffffffffffffffffffffffffffffffffffffffff1603610a1857600092505050610d11565b6000808273ffffffffffffffffffffffffffffffffffffffff167f01ffc9a700000000000000000000000000000000000000000000000000000000604051602401610a639190613ce4565b6040516020818303038152906040527f01ffc9a7000000000000000000000000000000000000000000000000000000007bffffffffffffffffffffffffffffffffffffffffffffffffffffffff19166020820180517bffffffffffffffffffffffffffffffffffffffffffffffffffffffff8381831617835250505050604051610aed91906138c3565b600060405180830381855afa9150503d8060008114610b28576040519150601f19603f3d011682016040523d82523d6000602084013e610b2d565b606091505b5091509150811580610b40575060208151105b80610b8e5750600060f81b81601f81518110610b5f57610b5e613cff565b5b602001015160f81c60f81b7effffffffffffffffffffffffffffffffffffffffffffffffffffffffffffff1916145b15610ba0576000945050505050610d11565b8273ffffffffffffffffffffffffffffffffffffffff1686604051602401610bc89190613ce4565b6040516020818303038152906040527f01ffc9a7000000000000000000000000000000000000000000000000000000007bffffffffffffffffffffffffffffffffffffffffffffffffffffffff19166020820180517bffffffffffffffffffffffffffffffffffffffffffffffffffffffff8381831617835250505050604051610c5291906138c3565b600060405180830381855afa9150503d8060008114610c8d576040519150601f19603f3d011682016040523d82523d6000602084013e610c92565b606091505b508092508193505050811580610ca9575060208151105b80610cf75750600060f81b81601f81518110610cc857610cc7613cff565b5b602001015160f81c60f81b7effffffffffffffffffffffffffffffffffffffffffffffffffffffffffffff1916145b15610d09576000945050505050610d11565b829450505050505b92915050565b6000606060006001600080600088815260200190815260200160002060009054906101000a900467ffffffffffffffff1667ffffffffffffffff1667ffffffffffffffff168152602001908152602001600020600086815260200190815260200160002090506000600190505b848111610e7757600085821614158015610dbc575060008260008381526020019081526020016000208054610db8906139c0565b9050115b15610e6b5780826000838152602001908152602001600020808054610de0906139c0565b80601f0160208091040260200160405190810160405280929190818152602001828054610e0c906139c0565b8015610e595780601f10610e2e57610100808354040283529160200191610e59565b820191906000526020600020905b815481529060010190602001808311610e3c57829003601f168201915b50505050509050935093505050610e90565b600181901b9050610d84565b5060006040518060200160405280600081525092509250505b9250929050565b82610ea181611f7b565b610eaa57600080fd5b6040518060400160405280848152602001838152506009600080600088815260200190815260200160002060009054906101000a900467ffffffffffffffff1667ffffffffffffffff1667ffffffffffffffff16815260200190815260200160002060008681526020019081526020016000206000820151816000015560208201518160010155905050837f1d6f5e03d3f63eb58751986629a5439baee5079ff04f345becb66e23eb154e468484604051610f66929190613761565b60405180910390a250505050565b82610f7e81611f7b565b610f8757600080fd5b82826003600080600089815260200190815260200160002060009054906101000a900467ffffffffffffffff1667ffffffffffffffff1667ffffffffffffffff16815260200190815260200160002060008781526020019081526020016000209182610ff4929190613d94565b50837fe379c1624ed7e714cc0937528a32359d69d5281337765313dba4e081b72d75788484604051611027929190613e91565b60405180910390a250505050565b8061103f81611f7b565b61104857600080fd5b600080838152602001908152602001600020600081819054906101000a900467ffffffffffffffff168092919061107e90613eb5565b91906101000a81548167ffffffffffffffff021916908367ffffffffffffffff16021790555050817fc6621ccb8f3f5a04bb6502154b2caf6adf5983fe76dfef1cfc9c42e3579db44460008085815260200190815260200160002060009054906101000a900467ffffffffffffffff166040516110fb9190613819565b60405180910390a25050565b60008061111583603c611dff565b9050600081510361112a576000915050611137565b61113381612526565b9150505b919050565b6000806006600080600087815260200190815260200160002060009054906101000a900467ffffffffffffffff1667ffffffffffffffff1667ffffffffffffffff1681526020019081526020016000206000858152602001908152602001600020600084815260200190815260200160002060009054906101000a900461ffff1661ffff161415905092915050565b6060600a600080600087815260200190815260200160002060009054906101000a900467ffffffffffffffff1667ffffffffffffffff1667ffffffffffffffff1681526020019081526020016000206000858152602001908152602001600020838360405161123b92919061396d565b90815260200160405180910390208054611254906139c0565b80601f0160208091040260200160405190810160405280929190818152602001828054611280906139c0565b80156112cd5780601f106112a2576101008083540402835291602001916112cd565b820191906000526020600020905b8154815290600101906020018083116112b057829003601f168201915b505050505090509392505050565b60606004600080600085815260200190815260200160002060009054906101000a900467ffffffffffffffff1667ffffffffffffffff1667ffffffffffffffff16815260200190815260200160002060008381526020019081526020016000208054611346906139c0565b80601f0160208091040260200160405190810160405280929190818152602001828054611372906139c0565b80156113bf5780601f10611394576101008083540402835291602001916113bf565b820191906000526020600020905b8154815290600101906020018083116113a257829003601f168201915b50505050509050919050565b836113d581611f7b565b6113de57600080fd5b6000846001866113ee9190613909565b16146113f957600080fd5b8282600160008060008a815260200190815260200160002060009054906101000a900467ffffffffffffffff1667ffffffffffffffff1667ffffffffffffffff168152602001908152602001600020600088815260200190815260200160002060008781526020019081526020016000209182611477929190613d94565b5083857faa121bbeef5f32f5961a2a28966e769023910fc9479059ee3495d4c1a696efe360405160405180910390a35050505050565b60606008600080600085815260200190815260200160002060009054906101000a900467ffffffffffffffff1667ffffffffffffffff1667ffffffffffffffff16815260200190815260200160002060008381526020019081526020016000208054611518906139c0565b80601f0160208091040260200160405190810160405280929190818152602001828054611544906139c0565b80156115915780601f1061156657610100808354040283529160200191611591565b820191906000526020600020905b81548152906001019060200180831161157457829003601f168201915b50505050509050919050565b826115a781611f7b565b6115b057600080fd5b82826008600080600089815260200190815260200160002060009054906101000a900467ffffffffffffffff1667ffffffffffffffff1667ffffffffffffffff1681526020019081526020016000206000878152602001908152602001600020918261161d929190613b9d565b50837fb7d29e911041e8d9b843369e890bcb72c9388692ba48b65ac54e7214c4c348f78484604051611650929190613ee5565b60405180910390a250505050565b8261166881611f7b565b61167157600080fd5b837f65412581168e88a1e60c6459d7f44ae83ad0832e670826c05a4e2476b57af75284846040516116a3929190613215565b60405180910390a2603c83036116f457837f52d7d861f09ab3d26239d492e8968629f95e9e318cf0b73bfddc441522a15fd26116de84612526565b6040516116eb9190613f5e565b60405180910390a25b816002600080600088815260200190815260200160002060009054906101000a900467ffffffffffffffff1667ffffffffffffffff1667ffffffffffffffff1681526020019081526020016000206000868152602001908152602001600020600085815260200190815260200160002090816117709190613f79565b5050505050565b60606000803073ffffffffffffffffffffffffffffffffffffffff16846040516117a191906138c3565b600060405180830381855afa9150503d80600081146117dc576040519150601f19603f3d011682016040523d82523d6000602084013e6117e1565b606091505b509150915081156117f65780925050506117fe565b805160208201fd5b92915050565b60606005600080600087815260200190815260200160002060009054906101000a900467ffffffffffffffff1667ffffffffffffffff1667ffffffffffffffff1681526020019081526020016000206000858152602001908152602001600020600084815260200190815260200160002060008361ffff1661ffff1681526020019081526020016000208054611899906139c0565b80601f01602080910402602001604051908101604052809291908181526020018280546118c5906139c0565b80156119125780601f106118e757610100808354040283529160200191611912565b820191906000526020600020905b8154815290600101906020018083116118f557829003601f168201915b505050505090509392505050565b60606003600080600085815260200190815260200160002060009054906101000a900467ffffffffffffffff1667ffffffffffffffff1667ffffffffffffffff1681526020019081526020016000206000838152602001908152602001600020805461198b906139c0565b80601f01602080910402602001604051908101604052809291908181526020018280546119b7906139c0565b8015611a045780601f106119d957610100808354040283529160200191611a04565b820191906000526020600020905b8154815290600101906020018083116119e757829003601f168201915b50505050509050919050565b600080600080600085815260200190815260200160002060009054906101000a900467ffffffffffffffff169050600960008267ffffffffffffffff1667ffffffffffffffff168152602001908152602001600020600085815260200190815260200160002060000154600960008367ffffffffffffffff1667ffffffffffffffff1681526020019081526020016000206000868152602001908152602001600020600101549250925050915091565b82611aca81611f7b565b611ad357600080fd5b600080600086815260200190815260200160002060009054906101000a900467ffffffffffffffff1690506000600460008367ffffffffffffffff1667ffffffffffffffff16815260200190815260200160002060008781526020019081526020016000208054611b43906139c0565b80601f0160208091040260200160405190810160405280929190818152602001828054611b6f906139c0565b8015611bbc5780601f10611b9157610100808354040283529160200191611bbc565b820191906000526020600020905b815481529060010190602001808311611b9f57829003601f168201915b505050505090508484600460008567ffffffffffffffff1667ffffffffffffffff16815260200190815260200160002060008981526020019081526020016000209182611c0a929190613d94565b50857f8f15ed4b723ef428f250961da8315675b507046737e19319fc1a4d81bfe87f85828787604051611c3f9392919061404b565b60405180910390a2505050505050565b81611c5981611f7b565b611c6257600080fd5b611c7683603c611c7185612549565b61165e565b505050565b60006020528060005260406000206000915054906101000a900467ffffffffffffffff1681565b82611cac81611f7b565b611cb557600080fd5b816007600080600088815260200190815260200160002060009054906101000a900467ffffffffffffffff1667ffffffffffffffff1667ffffffffffffffff16815260200190815260200160002060008681526020019081526020016000206000857bffffffffffffffffffffffffffffffffffffffffffffffffffffffff19167bffffffffffffffffffffffffffffffffffffffffffffffffffffffff1916815260200190815260200160002060006101000a81548173ffffffffffffffffffffffffffffffffffffffff021916908373ffffffffffffffffffffffffffffffffffffffff160217905550827bffffffffffffffffffffffffffffffffffffffffffffffffffffffff1916847f7c69f06bea0bdef565b709e93a147836b0063ba2dd89f02d0b7e8d931e6a6daa84604051611df191906130e5565b60405180910390a350505050565b60606002600080600086815260200190815260200160002060009054906101000a900467ffffffffffffffff1667ffffffffffffffff1667ffffffffffffffff168152602001908152602001600020600084815260200190815260200160002060008381526020019081526020016000208054611e7b906139c0565b80601f0160208091040260200160405190810160405280929190818152602001828054611ea7906139c0565b8015611ef45780601f10611ec957610100808354040283529160200191611ef4565b820191906000526020600020905b815481529060010190602001808311611ed757829003601f168201915b5050505050905092915050565b60007f59d1d43c000000000000000000000000000000000000000000000000000000007bffffffffffffffffffffffffffffffffffffffffffffffffffffffff1916827bffffffffffffffffffffffffffffffffffffffffffffffffffffffff19161480611f745750611f73826125ad565b5b9050919050565b600060019050919050565b611f8e612d07565b828160000181905250818160c0018181525050611faa816123e0565b92915050565b6000816000015151826020015110159050919050565b6060611ff68260200151611fe284600001518560200151612627565b84600001516126a39092919063ffffffff16565b9050919050565b606061202f8260a001518360a001518460c0015161201b9190613909565b84600001516126a39092919063ffffffff16565b9050919050565b60008151835114801561205557506120548360008460008751612738565b5b905092915050565b60008780519060200120905060006120808686896126a39092919063ffffffff16565b9050831561222e576000600560008567ffffffffffffffff1667ffffffffffffffff16815260200190815260200160002060008c8152602001908152602001600020600084815260200190815260200160002060008a61ffff1661ffff16815260200190815260200160002080546120f7906139c0565b90501461218157600660008467ffffffffffffffff1667ffffffffffffffff16815260200190815260200160002060008b81526020019081526020016000206000838152602001908152602001600020600081819054906101000a900461ffff168092919061216590614084565b91906101000a81548161ffff021916908361ffff160217905550505b600560008467ffffffffffffffff1667ffffffffffffffff16815260200190815260200160002060008b8152602001908152602001600020600083815260200190815260200160002060008961ffff1661ffff16815260200190815260200160002060006121ef9190612d52565b897f03528ed0c2a3ebc993b12ce3c16bb382f9c7d88ef7d8a1bf290eaf35955a12078a8a6040516122219291906140bc565b60405180910390a26123d4565b6000600560008567ffffffffffffffff1667ffffffffffffffff16815260200190815260200160002060008c8152602001908152602001600020600084815260200190815260200160002060008a61ffff1661ffff168152602001908152602001600020805461229d906139c0565b90500361232757600660008467ffffffffffffffff1667ffffffffffffffff16815260200190815260200160002060008b81526020019081526020016000206000838152602001908152602001600020600081819054906101000a900461ffff168092919061230b906140ec565b91906101000a81548161ffff021916908361ffff160217905550505b80600560008567ffffffffffffffff1667ffffffffffffffff16815260200190815260200160002060008c8152602001908152602001600020600084815260200190815260200160002060008a61ffff1661ffff16815260200190815260200160002090816123969190613f79565b50897f52a608b3303a48862d07a73d82fa221318c0027fbbcfb1b2329bface3f19ff2b8a8a846040516123cb93929190614116565b60405180910390a25b50505050505050505050565b8060c001518160200181815250508060000151518160200151101561252357600061241382600001518360200151612627565b8260200151612422919061415b565b905061243b81836000015161275c90919063ffffffff16565b826040019061ffff16908161ffff168152505060028161245b919061415b565b905061247481836000015161275c90919063ffffffff16565b826060019061ffff16908161ffff1681525050600281612494919061415b565b90506124ad81836000015161278b90919063ffffffff16565b826080019063ffffffff16908163ffffffff16815250506004816124d1919061415b565b905060006124ec82846000015161275c90919063ffffffff16565b61ffff1690506002826124ff919061415b565b9150818360a00181815250508082612517919061415b565b8360c001818152505050505b50565b6000601482511461253657600080fd5b600c6101000a6020830151049050919050565b6060601467ffffffffffffffff811115612566576125656134b3565b5b6040519080825280601f01601f1916602001820160405280156125985781602001600182028036833780820191505090505b509050600c6101000a82026020820152919050565b60007fc8690233000000000000000000000000000000000000000000000000000000007bffffffffffffffffffffffffffffffffffffffffffffffffffffffff1916827bffffffffffffffffffffffffffffffffffffffffffffffffffffffff19161480612620575061261f826127bc565b5b9050919050565b6000808290505b60011561268e57835181106126465761264561418f565b5b600061265b828661283690919063ffffffff16565b60ff16905060018161266d919061415b565b82612678919061415b565b915060008103612688575061268e565b5061262e565b828161269a9190613909565b91505092915050565b6060835182846126b3919061415b565b11156126be57600080fd5b60008267ffffffffffffffff8111156126da576126d96134b3565b5b6040519080825280601f01601f19166020018201604052801561270c5781602001600182028036833780820191505090505b509050600080602083019150856020880101905061272b828287612861565b8293505050509392505050565b60006127458484846128c5565b6127508787856128c5565b14905095945050505050565b6000825160028361276d919061415b565b111561277857600080fd5b61ffff8260028501015116905092915050565b6000825160048361279c919061415b565b11156127a757600080fd5b63ffffffff8260048501015116905092915050565b60007f691f3431000000000000000000000000000000000000000000000000000000007bffffffffffffffffffffffffffffffffffffffffffffffffffffffff1916827bffffffffffffffffffffffffffffffffffffffffffffffffffffffff1916148061282f575061282e826128f1565b5b9050919050565b600082828151811061284b5761284a613cff565b5b602001015160f81c60f81b60f81c905092915050565b5b602081106128a0578151835260208361287b919061415b565b925060208261288a919061415b565b91506020816128999190613909565b9050612862565b60006001826020036101000a0390508019835116818551168181178652505050505050565b6000835182846128d5919061415b565b11156128e057600080fd5b818360208601012090509392505050565b60007f124a319c000000000000000000000000000000000000000000000000000000007bffffffffffffffffffffffffffffffffffffffffffffffffffffffff1916827bffffffffffffffffffffffffffffffffffffffffffffffffffffffff1916148061296457506129638261296b565b5b9050919050565b60007fa8fa5682000000000000000000000000000000000000000000000000000000007bffffffffffffffffffffffffffffffffffffffffffffffffffffffff1916827bffffffffffffffffffffffffffffffffffffffffffffffffffffffff19161480612a3657507f5c98042b000000000000000000000000000000000000000000000000000000007bffffffffffffffffffffffffffffffffffffffffffffffffffffffff1916827bffffffffffffffffffffffffffffffffffffffffffffffffffffffff1916145b80612a465750612a4582612a4d565b5b9050919050565b60007fbc1c58d1000000000000000000000000000000000000000000000000000000007bffffffffffffffffffffffffffffffffffffffffffffffffffffffff1916827bffffffffffffffffffffffffffffffffffffffffffffffffffffffff19161480612ac05750612abf82612ac7565b5b9050919050565b60007f3b3b57de000000000000000000000000000000000000000000000000000000007bffffffffffffffffffffffffffffffffffffffffffffffffffffffff1916827bffffffffffffffffffffffffffffffffffffffffffffffffffffffff19161480612b9257507ff1cb7e06000000000000000000000000000000000000000000000000000000007bffffffffffffffffffffffffffffffffffffffffffffffffffffffff1916827bffffffffffffffffffffffffffffffffffffffffffffffffffffffff1916145b80612ba25750612ba182612ba9565b5b9050919050565b60007f2203ab56000000000000000000000000000000000000000000000000000000007bffffffffffffffffffffffffffffffffffffffffffffffffffffffff1916827bffffffffffffffffffffffffffffffffffffffffffffffffffffffff19161480612c1c5750612c1b82612c23565b5b9050919050565b60007fd700ff33000000000000000000000000000000000000000000000000000000007bffffffffffffffffffffffffffffffffffffffffffffffffffffffff1916827bffffffffffffffffffffffffffffffffffffffffffffffffffffffff19161480612c965750612c9582612c9d565b5b9050919050565b60007f01ffc9a7000000000000000000000000000000000000000000000000000000007bffffffffffffffffffffffffffffffffffffffffffffffffffffffff1916827bffffffffffffffffffffffffffffffffffffffffffffffffffffffff1916149050919050565b6040518060e001604052806060815260200160008152602001600061ffff168152602001600061ffff168152602001600063ffffffff16815260200160008152602001600081525090565b508054612d5e906139c0565b6000825580601f10612d705750612d8f565b601f016020900490600052602060002090810190612d8e9190612d92565b5b50565b5b80821115612dab576000816000905550600101612d93565b5090565b6000604051905090565b600080fd5b600080fd5b60007fffffffff0000000000000000000000000000000000000000000000000000000082169050919050565b612df881612dc3565b8114612e0357600080fd5b50565b600081359050612e1581612def565b92915050565b600060208284031215612e3157612e30612db9565b5b6000612e3f84828501612e06565b91505092915050565b60008115159050919050565b612e5d81612e48565b82525050565b6000602082019050612e786000830184612e54565b92915050565b6000819050919050565b612e9181612e7e565b8114612e9c57600080fd5b50565b600081359050612eae81612e88565b92915050565b600080fd5b600080fd5b600080fd5b60008083601f840112612ed957612ed8612eb4565b5b8235905067ffffffffffffffff811115612ef657612ef5612eb9565b5b602083019150836001820283011115612f1257612f11612ebe565b5b9250929050565b600080600060408486031215612f3257612f31612db9565b5b6000612f4086828701612e9f565b935050602084013567ffffffffffffffff811115612f6157612f60612dbe565b5b612f6d86828701612ec3565b92509250509250925092565b60008083601f840112612f8f57612f8e612eb4565b5b8235905067ffffffffffffffff811115612fac57612fab612eb9565b5b602083019150836001820283011115612fc857612fc7612ebe565b5b9250929050565b600080600080600060608688031215612feb57612fea612db9565b5b6000612ff988828901612e9f565b955050602086013567ffffffffffffffff81111561301a57613019612dbe565b5b61302688828901612f79565b9450945050604086013567ffffffffffffffff81111561304957613048612dbe565b5b61305588828901612f79565b92509250509295509295909350565b6000806040838503121561307b5761307a612db9565b5b600061308985828601612e9f565b925050602061309a85828601612e06565b9150509250929050565b600073ffffffffffffffffffffffffffffffffffffffff82169050919050565b60006130cf826130a4565b9050919050565b6130df816130c4565b82525050565b60006020820190506130fa60008301846130d6565b92915050565b6000819050919050565b61311381613100565b811461311e57600080fd5b50565b6000813590506131308161310a565b92915050565b6000806040838503121561314d5761314c612db9565b5b600061315b85828601612e9f565b925050602061316c85828601613121565b9150509250929050565b61317f81613100565b82525050565b600081519050919050565b600082825260208201905092915050565b60005b838110156131bf5780820151818401526020810190506131a4565b60008484015250505050565b6000601f19601f8301169050919050565b60006131e782613185565b6131f18185613190565b93506132018185602086016131a1565b61320a816131cb565b840191505092915050565b600060408201905061322a6000830185613176565b818103602083015261323c81846131dc565b90509392505050565b60008060006060848603121561325e5761325d612db9565b5b600061326c86828701612e9f565b935050602061327d86828701612e9f565b925050604061328e86828701612e9f565b9150509250925092565b6000602082840312156132ae576132ad612db9565b5b60006132bc84828501612e9f565b91505092915050565b60006132d0826130a4565b9050919050565b6132e0816132c5565b82525050565b60006020820190506132fb60008301846132d7565b92915050565b6000806040838503121561331857613317612db9565b5b600061332685828601612e9f565b925050602061333785828601612e9f565b9150509250929050565b60008060006040848603121561335a57613359612db9565b5b600061336886828701612e9f565b935050602084013567ffffffffffffffff81111561338957613388612dbe565b5b61339586828701612f79565b92509250509250925092565b600081519050919050565b600082825260208201905092915050565b60006133c8826133a1565b6133d281856133ac565b93506133e28185602086016131a1565b6133eb816131cb565b840191505092915050565b6000602082019050818103600083015261341081846133bd565b905092915050565b6000602082019050818103600083015261343281846131dc565b905092915050565b6000806000806060858703121561345457613453612db9565b5b600061346287828801612e9f565b945050602061347387828801613121565b935050604085013567ffffffffffffffff81111561349457613493612dbe565b5b6134a087828801612ec3565b925092505092959194509250565b600080fd5b7f4e487b7100000000000000000000000000000000000000000000000000000000600052604160045260246000fd5b6134eb826131cb565b810181811067ffffffffffffffff8211171561350a576135096134b3565b5b80604052505050565b600061351d612daf565b905061352982826134e2565b919050565b600067ffffffffffffffff821115613549576135486134b3565b5b613552826131cb565b9050602081019050919050565b82818337600083830152505050565b600061358161357c8461352e565b613513565b90508281526020810184848401111561359d5761359c6134ae565b5b6135a884828561355f565b509392505050565b600082601f8301126135c5576135c4612eb4565b5b81356135d584826020860161356e565b91505092915050565b6000806000606084860312156135f7576135f6612db9565b5b600061360586828701612e9f565b935050602061361686828701613121565b925050604084013567ffffffffffffffff81111561363757613636612dbe565b5b613643868287016135b0565b9150509250925092565b6000806040838503121561366457613663612db9565b5b600083013567ffffffffffffffff81111561368257613681612dbe565b5b61368e858286016135b0565b925050602083013567ffffffffffffffff8111156136af576136ae612dbe565b5b6136bb858286016135b0565b9150509250929050565b600061ffff82169050919050565b6136dc816136c5565b81146136e757600080fd5b50565b6000813590506136f9816136d3565b92915050565b60008060006060848603121561371857613717612db9565b5b600061372686828701612e9f565b935050602061373786828701612e9f565b9250506040613748868287016136ea565b9150509250925092565b61375b81612e7e565b82525050565b60006040820190506137766000830185613752565b6137836020830184613752565b9392505050565b613793816130c4565b811461379e57600080fd5b50565b6000813590506137b08161378a565b92915050565b600080604083850312156137cd576137cc612db9565b5b60006137db85828601612e9f565b92505060206137ec858286016137a1565b9150509250929050565b600067ffffffffffffffff82169050919050565b613813816137f6565b82525050565b600060208201905061382e600083018461380a565b92915050565b60008060006060848603121561384d5761384c612db9565b5b600061385b86828701612e9f565b935050602061386c86828701612e06565b925050604061387d868287016137a1565b9150509250925092565b600081905092915050565b600061389d82613185565b6138a78185613887565b93506138b78185602086016131a1565b80840191505092915050565b60006138cf8284613892565b915081905092915050565b7f4e487b7100000000000000000000000000000000000000000000000000000000600052601160045260246000fd5b600061391482613100565b915061391f83613100565b9250828203905081811115613937576139366138da565b5b92915050565b600081905092915050565b6000613954838561393d565b935061396183858461355f565b82840190509392505050565b600061397a828486613948565b91508190509392505050565b600082905092915050565b7f4e487b7100000000000000000000000000000000000000000000000000000000600052602260045260246000fd5b600060028204905060018216806139d857607f821691505b6020821081036139eb576139ea613991565b5b50919050565b60008190508160005260206000209050919050565b60006020601f8301049050919050565b600082821b905092915050565b600060088302613a537fffffffffffffffffffffffffffffffffffffffffffffffffffffffffffffffff82613a16565b613a5d8683613a16565b95508019841693508086168417925050509392505050565b6000819050919050565b6000613a9a613a95613a9084613100565b613a75565b613100565b9050919050565b6000819050919050565b613ab483613a7f565b613ac8613ac082613aa1565b848454613a23565b825550505050565b600090565b613add613ad0565b613ae8818484613aab565b505050565b5b81811015613b0c57613b01600082613ad5565b600181019050613aee565b5050565b601f821115613b5157613b22816139f1565b613b2b84613a06565b81016020851015613b3a578190505b613b4e613b4685613a06565b830182613aed565b50505b505050565b600082821c905092915050565b6000613b7460001984600802613b56565b1980831691505092915050565b6000613b8d8383613b63565b9150826002028217905092915050565b613ba78383613986565b67ffffffffffffffff811115613bc057613bbf6134b3565b5b613bca82546139c0565b613bd5828285613b10565b6000601f831160018114613c045760008415613bf2578287013590505b613bfc8582613b81565b865550613c64565b601f198416613c12866139f1565b60005b82811015613c3a57848901358255600182019150602085019450602081019050613c15565b86831015613c575784890135613c53601f891682613b63565b8355505b6001600288020188555050505b50505050505050565b6000613c7983856133ac565b9350613c8683858461355f565b613c8f836131cb565b840190509392505050565b60006040820190508181036000830152613cb5818688613c6d565b90508181036020830152613cca818486613c6d565b905095945050505050565b613cde81612dc3565b82525050565b6000602082019050613cf96000830184613cd5565b92915050565b7f4e487b7100000000000000000000000000000000000000000000000000000000600052603260045260246000fd5b600082905092915050565b60008190508160005260206000209050919050565b601f821115613d8f57613d6081613d39565b613d6984613a06565b81016020851015613d78578190505b613d8c613d8485613a06565b830182613aed565b50505b505050565b613d9e8383613d2e565b67ffffffffffffffff811115613db757613db66134b3565b5b613dc182546139c0565b613dcc828285613d4e565b6000601f831160018114613dfb5760008415613de9578287013590505b613df38582613b81565b865550613e5b565b601f198416613e0986613d39565b60005b82811015613e3157848901358255600182019150602085019450602081019050613e0c565b86831015613e4e5784890135613e4a601f891682613b63565b8355505b6001600288020188555050505b50505050505050565b6000613e708385613190565b9350613e7d83858461355f565b613e86836131cb565b840190509392505050565b60006020820190508181036000830152613eac818486613e64565b90509392505050565b6000613ec0826137f6565b915067ffffffffffffffff8203613eda57613ed96138da565b5b600182019050919050565b60006020820190508181036000830152613f00818486613c6d565b90509392505050565b6000613f24613f1f613f1a846130a4565b613a75565b6130a4565b9050919050565b6000613f3682613f09565b9050919050565b6000613f4882613f2b565b9050919050565b613f5881613f3d565b82525050565b6000602082019050613f736000830184613f4f565b92915050565b613f8282613185565b67ffffffffffffffff811115613f9b57613f9a6134b3565b5b613fa582546139c0565b613fb0828285613d4e565b600060209050601f831160018114613fe35760008415613fd1578287015190505b613fdb8582613b81565b865550614043565b601f198416613ff186613d39565b60005b8281101561401957848901518255600182019150602085019450602081019050613ff4565b868310156140365784890151614032601f891682613b63565b8355505b6001600288020188555050505b505050505050565b6000604082019050818103600083015261406581866131dc565b9050818103602083015261407a818486613e64565b9050949350505050565b600061408f826136c5565b9150600082036140a2576140a16138da565b5b600182039050919050565b6140b6816136c5565b82525050565b600060408201905081810360008301526140d681856131dc565b90506140e560208301846140ad565b9392505050565b60006140f7826136c5565b915061ffff820361410b5761410a6138da565b5b600182019050919050565b6000606082019050818103600083015261413081866131dc565b905061413f60208301856140ad565b818103604083015261415181846131dc565b9050949350505050565b600061416682613100565b915061417183613100565b9250828201905080821115614189576141886138da565b5b92915050565b7f4e487b7100000000000000000000000000000000000000000000000000000000600052600160045260246000fdfea26469706673582212200caf09d72317e5b1ff6e88a34299a98de961658a8967040337cc79e53930fc9e64736f6c63430008110033",
  "linkReferences": {},
  "deployedLinkReferences": {}
}