{
  "_format": "hh-sol-artifact-1",
  "contractName": "OpenResolver",
  "sourceName": "contracts/OpenResolver.sol",
  "abi": [
    {
      "anonymous": false,
      "inputs": [
        {
          "indexed": true,
          "internalType": "bytes32",
          "name": "node",
          "type": "bytes32"
        },
        {
          "indexed": true,
          "internalType": "uint256",
          "name": "contentType",
          "type": "uint256"
        }
      ],
      "name": "ABIChanged",
      "type": "event"
    },
    {
      "anonymous": false,
      "inputs": [
        {
          "indexed": true,
          "internalType": "bytes32",
          "name": "node",
          "type": "bytes32"
        },
        {
          "indexed": false,
          "internalType": "address",
          "name": "a",
          "type": "address"
        }
      ],
      "name": "AddrChanged",
      "type": "event"
    },
    {
      "anonymous": false,
      "inputs": [
        {
          "indexed": true,
          "internalType": "bytes32",
          "name": "node",
          "type": "bytes32"
        },
        {
          "indexed": false,
          "internalType": "uint256",
          "name": "coinType",
          "type": "uint256"
        },
        {
          "indexed": false,
          "internalType": "bytes",
          "name": "newAddress",
          "type": "bytes"
        }
      ],
      "name": "AddressChanged",
      "type": "event"
    },
    {
      "anonymous": false,
      "inputs": [
        {
          "indexed": true,
          "internalType": "bytes32",
          "name": "node",
          "type": "bytes32"
        },
        {
          "indexed": false,
          "internalType": "bytes",
          "name": "hash",
          "type": "bytes"
        }
      ],
      "name": "ContenthashChanged",
      "type": "event"
    },
    {
      "anonymous": false,
      "inputs": [
        {
          "indexed": true,
          "internalType": "bytes32",
          "name": "node",
          "type": "bytes32"
        },
        {
          "indexed": false,
          "internalType": "bytes",
          "name": "name",
          "type": "bytes"
        },
        {
          "indexed": false,
          "internalType": "uint16",
          "name": "resource",
          "type": "uint16"
        },
        {
          "indexed": false,
          "internalType": "bytes",
          "name": "record",
          "type": "bytes"
        }
      ],
      "name": "DNSRecordChanged",
      "type": "event"
    },
    {
      "anonymous": false,
      "inputs": [
        {
          "indexed": true,
          "internalType": "bytes32",
          "name": "node",
          "type": "bytes32"
        },
        {
          "indexed": false,
          "internalType": "bytes",
          "name": "name",
          "type": "bytes"
        },
        {
          "indexed": false,
          "internalType": "uint16",
          "name": "resource",
          "type": "uint16"
        }
      ],
      "name": "DNSRecordDeleted",
      "type": "event"
    },
    {
      "anonymous": false,
      "inputs": [
        {
          "indexed": true,
          "internalType": "bytes32",
          "name": "node",
          "type": "bytes32"
        },
        {
          "indexed": false,
          "internalType": "bytes",
          "name": "lastzonehash",
          "type": "bytes"
        },
        {
          "indexed": false,
          "internalType": "bytes",
          "name": "zonehash",
          "type": "bytes"
        }
      ],
      "name": "DNSZonehashChanged",
      "type": "event"
    },
    {
      "anonymous": false,
      "inputs": [
        {
          "indexed": true,
          "internalType": "bytes32",
          "name": "node",
          "type": "bytes32"
        },
        {
          "indexed": true,
          "internalType": "bytes4",
          "name": "interfaceID",
          "type": "bytes4"
        },
        {
          "indexed": false,
          "internalType": "address",
          "name": "implementer",
          "type": "address"
        }
      ],
      "name": "InterfaceChanged",
      "type": "event"
    },
    {
      "anonymous": false,
      "inputs": [
        {
          "indexed": true,
          "internalType": "bytes32",
          "name": "node",
          "type": "bytes32"
        },
        {
          "indexed": false,
          "internalType": "string",
          "name": "name",
          "type": "string"
        }
      ],
      "name": "NameChanged",
      "type": "event"
    },
    {
      "anonymous": false,
      "inputs": [
        {
          "indexed": true,
          "internalType": "bytes32",
          "name": "node",
          "type": "bytes32"
        },
        {
          "indexed": false,
          "internalType": "bytes32",
          "name": "x",
          "type": "bytes32"
        },
        {
          "indexed": false,
          "internalType": "bytes32",
          "name": "y",
          "type": "bytes32"
        }
      ],
      "name": "PubkeyChanged",
      "type": "event"
    },
    {
      "anonymous": false,
      "inputs": [
        {
          "indexed": true,
          "internalType": "bytes32",
          "name": "node",
          "type": "bytes32"
        },
        {
          "indexed": true,
          "internalType": "string",
          "name": "indexedKey",
          "type": "string"
        },
        {
          "indexed": false,
          "internalType": "string",
          "name": "key",
          "type": "string"
        },
        {
          "indexed": false,
          "internalType": "string",
          "name": "value",
          "type": "string"
        }
      ],
      "name": "TextChanged",
      "type": "event"
    },
    {
      "anonymous": false,
      "inputs": [
        {
          "indexed": true,
          "internalType": "bytes32",
          "name": "node",
          "type": "bytes32"
        },
        {
          "indexed": false,
          "internalType": "uint64",
          "name": "newVersion",
          "type": "uint64"
        }
      ],
      "name": "VersionChanged",
      "type": "event"
    },
    {
      "inputs": [
        {
          "internalType": "bytes32",
          "name": "node",
          "type": "bytes32"
        },
        {
          "internalType": "uint256",
          "name": "contentTypes",
          "type": "uint256"
        }
      ],
      "name": "ABI",
      "outputs": [
        {
          "internalType": "uint256",
          "name": "",
          "type": "uint256"
        },
        {
          "internalType": "bytes",
          "name": "",
          "type": "bytes"
        }
      ],
      "stateMutability": "view",
      "type": "function"
    },
    {
      "inputs": [
        {
          "internalType": "bytes32",
          "name": "node",
          "type": "bytes32"
        }
      ],
      "name": "addr",
      "outputs": [
        {
          "internalType": "address payable",
          "name": "",
          "type": "address"
        }
      ],
      "stateMutability": "view",
      "type": "function"
    },
    {
      "inputs": [
        {
          "internalType": "bytes32",
          "name": "node",
          "type": "bytes32"
        },
        {
          "internalType": "uint256",
          "name": "coinType",
          "type": "uint256"
        }
      ],
      "name": "addr",
      "outputs": [
        {
          "internalType": "bytes",
          "name": "",
          "type": "bytes"
        }
      ],
      "stateMutability": "view",
      "type": "function"
    },
    {
      "inputs": [
        {
          "internalType": "bytes32",
          "name": "node",
          "type": "bytes32"
        }
      ],
      "name": "clearRecords",
      "outputs": [],
      "stateMutability": "nonpayable",
      "type": "function"
    },
    {
      "inputs": [
        {
          "internalType": "bytes32",
          "name": "node",
          "type": "bytes32"
        }
      ],
      "name": "contenthash",
      "outputs": [
        {
          "internalType": "bytes",
          "name": "",
          "type": "bytes"
        }
      ],
      "stateMutability": "view",
      "type": "function"
    },
    {
      "inputs": [
        {
          "internalType": "bytes32",
          "name": "node",
          "type": "bytes32"
        },
        {
          "internalType": "bytes32",
          "name": "name",
          "type": "bytes32"
        },
        {
          "internalType": "uint16",
          "name": "resource",
          "type": "uint16"
        }
      ],
      "name": "dnsRecord",
      "outputs": [
        {
          "internalType": "bytes",
          "name": "",
          "type": "bytes"
        }
      ],
      "stateMutability": "view",
      "type": "function"
    },
    {
      "inputs": [
        {
          "internalType": "bytes32",
          "name": "node",
          "type": "bytes32"
        },
        {
          "internalType": "bytes32",
          "name": "name",
          "type": "bytes32"
        }
      ],
      "name": "hasDNSRecords",
      "outputs": [
        {
          "internalType": "bool",
          "name": "",
          "type": "bool"
        }
      ],
      "stateMutability": "view",
      "type": "function"
    },
    {
      "inputs": [
        {
          "internalType": "bytes32",
          "name": "node",
          "type": "bytes32"
        },
        {
          "internalType": "bytes4",
          "name": "interfaceID",
          "type": "bytes4"
        }
      ],
      "name": "interfaceImplementer",
      "outputs": [
        {
          "internalType": "address",
          "name": "",
          "type": "address"
        }
      ],
      "stateMutability": "view",
      "type": "function"
    },
    {
      "inputs": [
        {
          "internalType": "bytes32",
          "name": "node",
          "type": "bytes32"
        }
      ],
      "name": "name",
      "outputs": [
        {
          "internalType": "string",
          "name": "",
          "type": "string"
        }
      ],
      "stateMutability": "view",
      "type": "function"
    },
    {
      "inputs": [
        {
          "internalType": "bytes32",
          "name": "node",
          "type": "bytes32"
        }
      ],
      "name": "pubkey",
      "outputs": [
        {
          "internalType": "bytes32",
          "name": "x",
          "type": "bytes32"
        },
        {
          "internalType": "bytes32",
          "name": "y",
          "type": "bytes32"
        }
      ],
      "stateMutability": "view",
      "type": "function"
    },
    {
      "inputs": [
        {
          "internalType": "bytes32",
          "name": "",
          "type": "bytes32"
        }
      ],
      "name": "recordVersions",
      "outputs": [
        {
          "internalType": "uint64",
          "name": "",
          "type": "uint64"
        }
      ],
      "stateMutability": "view",
      "type": "function"
    },
    {
      "inputs": [
        {
          "internalType": "bytes",
          "name": "",
          "type": "bytes"
        },
        {
          "internalType": "bytes",
          "name": "data",
          "type": "bytes"
        }
      ],
      "name": "resolve",
      "outputs": [
        {
          "internalType": "bytes",
          "name": "",
          "type": "bytes"
        }
      ],
      "stateMutability": "view",
      "type": "function"
    },
    {
      "inputs": [
        {
          "internalType": "bytes32",
          "name": "node",
          "type": "bytes32"
        },
        {
          "internalType": "uint256",
          "name": "contentType",
          "type": "uint256"
        },
        {
          "internalType": "bytes",
          "name": "data",
          "type": "bytes"
        }
      ],
      "name": "setABI",
      "outputs": [],
      "stateMutability": "nonpayable",
      "type": "function"
    },
    {
      "inputs": [
        {
          "internalType": "bytes32",
          "name": "node",
          "type": "bytes32"
        },
        {
          "internalType": "uint256",
          "name": "coinType",
          "type": "uint256"
        },
        {
          "internalType": "bytes",
          "name": "a",
          "type": "bytes"
        }
      ],
      "name": "setAddr",
      "outputs": [],
      "stateMutability": "nonpayable",
      "type": "function"
    },
    {
      "inputs": [
        {
          "internalType": "bytes32",
          "name": "node",
          "type": "bytes32"
        },
        {
          "internalType": "address",
          "name": "a",
          "type": "address"
        }
      ],
      "name": "setAddr",
      "outputs": [],
      "stateMutability": "nonpayable",
      "type": "function"
    },
    {
      "inputs": [
        {
          "internalType": "bytes32",
          "name": "node",
          "type": "bytes32"
        },
        {
          "internalType": "bytes",
          "name": "hash",
          "type": "bytes"
        }
      ],
      "name": "setContenthash",
      "outputs": [],
      "stateMutability": "nonpayable",
      "type": "function"
    },
    {
      "inputs": [
        {
          "internalType": "bytes32",
          "name": "node",
          "type": "bytes32"
        },
        {
          "internalType": "bytes",
          "name": "data",
          "type": "bytes"
        }
      ],
      "name": "setDNSRecords",
      "outputs": [],
      "stateMutability": "nonpayable",
      "type": "function"
    },
    {
      "inputs": [
        {
          "internalType": "bytes32",
          "name": "node",
          "type": "bytes32"
        },
        {
          "internalType": "bytes4",
          "name": "interfaceID",
          "type": "bytes4"
        },
        {
          "internalType": "address",
          "name": "implementer",
          "type": "address"
        }
      ],
      "name": "setInterface",
      "outputs": [],
      "stateMutability": "nonpayable",
      "type": "function"
    },
    {
      "inputs": [
        {
          "internalType": "bytes32",
          "name": "node",
          "type": "bytes32"
        },
        {
          "internalType": "string",
          "name": "newName",
          "type": "string"
        }
      ],
      "name": "setName",
      "outputs": [],
      "stateMutability": "nonpayable",
      "type": "function"
    },
    {
      "inputs": [
        {
          "internalType": "bytes32",
          "name": "node",
          "type": "bytes32"
        },
        {
          "internalType": "bytes32",
          "name": "x",
          "type": "bytes32"
        },
        {
          "internalType": "bytes32",
          "name": "y",
          "type": "bytes32"
        }
      ],
      "name": "setPubkey",
      "outputs": [],
      "stateMutability": "nonpayable",
      "type": "function"
    },
    {
      "inputs": [
        {
          "internalType": "bytes32",
          "name": "node",
          "type": "bytes32"
        },
        {
          "internalType": "string",
          "name": "key",
          "type": "string"
        },
        {
          "internalType": "string",
          "name": "value",
          "type": "string"
        }
      ],
      "name": "setText",
      "outputs": [],
      "stateMutability": "nonpayable",
      "type": "function"
    },
    {
      "inputs": [
        {
          "internalType": "bytes32",
          "name": "node",
          "type": "bytes32"
        },
        {
          "internalType": "bytes",
          "name": "hash",
          "type": "bytes"
        }
      ],
      "name": "setZonehash",
      "outputs": [],
      "stateMutability": "nonpayable",
      "type": "function"
    },
    {
      "inputs": [
        {
          "internalType": "bytes4",
          "name": "interfaceID",
          "type": "bytes4"
        }
      ],
      "name": "supportsInterface",
      "outputs": [
        {
          "internalType": "bool",
          "name": "",
          "type": "bool"
        }
      ],
      "stateMutability": "view",
      "type": "function"
    },
    {
      "inputs": [
        {
          "internalType": "bytes32",
          "name": "node",
          "type": "bytes32"
        },
        {
          "internalType": "string",
          "name": "key",
          "type": "string"
        }
      ],
      "name": "text",
      "outputs": [
        {
          "internalType": "string",
          "name": "",
          "type": "string"
        }
      ],
      "stateMutability": "view",
      "type": "function"
    },
    {
      "inputs": [
        {
          "internalType": "bytes32",
          "name": "node",
          "type": "bytes32"
        }
      ],
      "name": "zonehash",
      "outputs": [
        {
          "internalType": "bytes",
          "name": "",
          "type": "bytes"
        }
      ],
      "stateMutability": "view",
      "type": "function"
    }
  ],
  "bytecode": "0x608060405234801561001057600080fd5b50614239806100206000396000f3fe608060405234801561001057600080fd5b50600436106101735760003560e01c8063623195b0116100de578063bc1c58d111610097578063d5fa2b0011610071578063d5fa2b00146104b6578063d700ff33146104d2578063e59d895d14610502578063f1cb7e061461051e57610173565b8063bc1c58d114610439578063c869023314610469578063ce3decdc1461049a57610173565b8063623195b014610355578063691f34311461037157806377372213146103a15780638b95dd71146103bd5780639061b923146103d9578063a8fa56821461040957610173565b8063304e6ade11610130578063304e6ade1461025d5780633603d758146102795780633b3b57de146102955780634cbf6ba4146102c557806359d1d43c146102f55780635c98042b1461032557610173565b806301ffc9a7146101785780630af179d7146101a857806310f13a8c146101c4578063124a319c146101e05780632203ab561461021057806329cd62ea14610241575b600080fd5b610192600480360381019061018d9190612e60565b61054e565b60405161019f9190612ea8565b60405180910390f35b6101c260048036038101906101bd9190612f5e565b610560565b005b6101de60048036038101906101d99190613014565b6107bf565b005b6101fa60048036038101906101f591906130a9565b6108bc565b604051610207919061312a565b60405180910390f35b61022a6004803603810190610225919061317b565b610d17565b60405161023892919061325a565b60405180910390f35b61025b6004803603810190610256919061328a565b610e97565b005b61027760048036038101906102729190612f5e565b610f74565b005b610293600480360381019061028e91906132dd565b611035565b005b6102af60048036038101906102aa91906132dd565b611107565b6040516102bc919061332b565b60405180910390f35b6102df60048036038101906102da9190613346565b61114c565b6040516102ec9190612ea8565b60405180910390f35b61030f600480360381019061030a9190613386565b6111db565b60405161031c919061343b565b60405180910390f35b61033f600480360381019061033a91906132dd565b6112eb565b60405161034c919061345d565b60405180910390f35b61036f600480360381019061036a919061347f565b6113db565b005b61038b600480360381019061038691906132dd565b6114bd565b604051610398919061343b565b60405180910390f35b6103bb60048036038101906103b69190613386565b6115ad565b005b6103d760048036038101906103d29190613623565b61166e565b005b6103f360048036038101906103ee9190613692565b611787565b604051610400919061345d565b60405180910390f35b610423600480360381019061041e9190613744565b611814565b604051610430919061345d565b60405180910390f35b610453600480360381019061044e91906132dd565b611930565b604051610460919061345d565b60405180910390f35b610483600480360381019061047e91906132dd565b611a20565b6040516104919291906137a6565b60405180910390f35b6104b460048036038101906104af9190612f5e565b611ad0565b005b6104d060048036038101906104cb91906137fb565b611c5f565b005b6104ec60048036038101906104e791906132dd565b611c8b565b6040516104f9919061385e565b60405180910390f35b61051c60048036038101906105179190613879565b611cb2565b005b6105386004803603810190610533919061317b565b611e0f565b604051610545919061345d565b60405180910390f35b600061055982611f11565b9050919050565b8261056a81611f8b565b61057357600080fd5b6000806060806000806000808b815260200190815260200160002060009054906101000a900467ffffffffffffffff16905060006105ff60008b8b8080601f016020809104026020016040519081016040528093929190818152602001838380828437600081840152601f19601f82011690508083019250505050505050611f9690919063ffffffff16565b90505b61060b81611fc0565b6107415760008761ffff1603610666578060400151965061062b81611fd6565b94508460405160200161063e9190613908565b60405160208183030381529060405280519060200120925061065f8161200d565b9350610733565b600061067182611fd6565b9050816040015161ffff168861ffff1614158061069e575061069c818761204690919063ffffffff16565b155b156107315761070a8c878a8e8e8080601f016020809104026020016040519081016040528093929190818152602001838380828437600081840152601f19601f820116905080830192505050505050508b8c88602001516106ff919061394e565b60008c51148a61206d565b81604001519750816020015196508095508580519060200120935061072e8261200d565b94505b505b61073c816123f0565b610602565b506000845111156107b3576107b28a85888c8c8080601f016020809104026020016040519081016040528093929190818152602001838380828437600081840152601f19601f82011690508083019250505050505050898a8f8f90506107a7919061394e565b60008a51148861206d565b5b50505050505050505050565b846107c981611f8b565b6107d257600080fd5b8282600a60008060008b815260200190815260200160002060009054906101000a900467ffffffffffffffff1667ffffffffffffffff1667ffffffffffffffff168152602001908152602001600020600089815260200190815260200160002087876040516108429291906139b2565b9081526020016040518091039020918261085d929190613be2565b50848460405161086e9291906139b2565b6040518091039020867f448bc014f1536726cf8d54ff3d6481ed3cbc683c2591ca204274009afa09b1a1878787876040516108ac9493929190613cdf565b60405180910390a3505050505050565b6000806007600080600087815260200190815260200160002060009054906101000a900467ffffffffffffffff1667ffffffffffffffff1667ffffffffffffffff16815260200190815260200160002060008581526020019081526020016000206000847bffffffffffffffffffffffffffffffffffffffffffffffffffffffff19167bffffffffffffffffffffffffffffffffffffffffffffffffffffffff1916815260200190815260200160002060009054906101000a900473ffffffffffffffffffffffffffffffffffffffff169050600073ffffffffffffffffffffffffffffffffffffffff168173ffffffffffffffffffffffffffffffffffffffff16146109cc5780915050610d11565b60006109d785611107565b9050600073ffffffffffffffffffffffffffffffffffffffff168173ffffffffffffffffffffffffffffffffffffffff1603610a1857600092505050610d11565b6000808273ffffffffffffffffffffffffffffffffffffffff167f01ffc9a700000000000000000000000000000000000000000000000000000000604051602401610a639190613d29565b6040516020818303038152906040527f01ffc9a7000000000000000000000000000000000000000000000000000000007bffffffffffffffffffffffffffffffffffffffffffffffffffffffff19166020820180517bffffffffffffffffffffffffffffffffffffffffffffffffffffffff8381831617835250505050604051610aed9190613908565b600060405180830381855afa9150503d8060008114610b28576040519150601f19603f3d011682016040523d82523d6000602084013e610b2d565b606091505b5091509150811580610b40575060208151105b80610b8e5750600060f81b81601f81518110610b5f57610b5e613d44565b5b602001015160f81c60f81b7effffffffffffffffffffffffffffffffffffffffffffffffffffffffffffff1916145b15610ba0576000945050505050610d11565b8273ffffffffffffffffffffffffffffffffffffffff1686604051602401610bc89190613d29565b6040516020818303038152906040527f01ffc9a7000000000000000000000000000000000000000000000000000000007bffffffffffffffffffffffffffffffffffffffffffffffffffffffff19166020820180517bffffffffffffffffffffffffffffffffffffffffffffffffffffffff8381831617835250505050604051610c529190613908565b600060405180830381855afa9150503d8060008114610c8d576040519150601f19603f3d011682016040523d82523d6000602084013e610c92565b606091505b508092508193505050811580610ca9575060208151105b80610cf75750600060f81b81601f81518110610cc857610cc7613d44565b5b602001015160f81c60f81b7effffffffffffffffffffffffffffffffffffffffffffffffffffffffffffff1916145b15610d09576000945050505050610d11565b829450505050505b92915050565b6000606060006001600080600088815260200190815260200160002060009054906101000a900467ffffffffffffffff1667ffffffffffffffff1667ffffffffffffffff168152602001908152602001600020600086815260200190815260200160002090506000600190505b848111610e7757600085821614158015610dbc575060008260008381526020019081526020016000208054610db890613a05565b9050115b15610e6b5780826000838152602001908152602001600020808054610de090613a05565b80601f0160208091040260200160405190810160405280929190818152602001828054610e0c90613a05565b8015610e595780601f10610e2e57610100808354040283529160200191610e59565b820191906000526020600020905b815481529060010190602001808311610e3c57829003601f168201915b50505050509050935093505050610e90565b600181901b9050610d84565b5060006040518060200160405280600081525092509250505b9250929050565b82610ea181611f8b565b610eaa57600080fd5b6040518060400160405280848152602001838152506009600080600088815260200190815260200160002060009054906101000a900467ffffffffffffffff1667ffffffffffffffff1667ffffffffffffffff16815260200190815260200160002060008681526020019081526020016000206000820151816000015560208201518160010155905050837f1d6f5e03d3f63eb58751986629a5439baee5079ff04f345becb66e23eb154e468484604051610f669291906137a6565b60405180910390a250505050565b82610f7e81611f8b565b610f8757600080fd5b82826003600080600089815260200190815260200160002060009054906101000a900467ffffffffffffffff1667ffffffffffffffff1667ffffffffffffffff16815260200190815260200160002060008781526020019081526020016000209182610ff4929190613dd9565b50837fe379c1624ed7e714cc0937528a32359d69d5281337765313dba4e081b72d75788484604051611027929190613ed6565b60405180910390a250505050565b8061103f81611f8b565b61104857600080fd5b600080838152602001908152602001600020600081819054906101000a900467ffffffffffffffff168092919061107e90613efa565b91906101000a81548167ffffffffffffffff021916908367ffffffffffffffff16021790555050817fc6621ccb8f3f5a04bb6502154b2caf6adf5983fe76dfef1cfc9c42e3579db44460008085815260200190815260200160002060009054906101000a900467ffffffffffffffff166040516110fb919061385e565b60405180910390a25050565b60007fad3c37868ae515dba167cae3a0604972edf91b84b773bb7f0d69e6c5bb930f5960001b820361113b57309050611147565b61114482612536565b90505b919050565b6000806006600080600087815260200190815260200160002060009054906101000a900467ffffffffffffffff1667ffffffffffffffff1667ffffffffffffffff1681526020019081526020016000206000858152602001908152602001600020600084815260200190815260200160002060009054906101000a900461ffff1661ffff161415905092915050565b6060600a600080600087815260200190815260200160002060009054906101000a900467ffffffffffffffff1667ffffffffffffffff1667ffffffffffffffff1681526020019081526020016000206000858152602001908152602001600020838360405161124b9291906139b2565b9081526020016040518091039020805461126490613a05565b80601f016020809104026020016040519081016040528092919081815260200182805461129090613a05565b80156112dd5780601f106112b2576101008083540402835291602001916112dd565b820191906000526020600020905b8154815290600101906020018083116112c057829003601f168201915b505050505090509392505050565b60606004600080600085815260200190815260200160002060009054906101000a900467ffffffffffffffff1667ffffffffffffffff1667ffffffffffffffff1681526020019081526020016000206000838152602001908152602001600020805461135690613a05565b80601f016020809104026020016040519081016040528092919081815260200182805461138290613a05565b80156113cf5780601f106113a4576101008083540402835291602001916113cf565b820191906000526020600020905b8154815290600101906020018083116113b257829003601f168201915b50505050509050919050565b836113e581611f8b565b6113ee57600080fd5b6000846001866113fe919061394e565b161461140957600080fd5b8282600160008060008a815260200190815260200160002060009054906101000a900467ffffffffffffffff1667ffffffffffffffff1667ffffffffffffffff168152602001908152602001600020600088815260200190815260200160002060008781526020019081526020016000209182611487929190613dd9565b5083857faa121bbeef5f32f5961a2a28966e769023910fc9479059ee3495d4c1a696efe360405160405180910390a35050505050565b60606008600080600085815260200190815260200160002060009054906101000a900467ffffffffffffffff1667ffffffffffffffff1667ffffffffffffffff1681526020019081526020016000206000838152602001908152602001600020805461152890613a05565b80601f016020809104026020016040519081016040528092919081815260200182805461155490613a05565b80156115a15780601f10611576576101008083540402835291602001916115a1565b820191906000526020600020905b81548152906001019060200180831161158457829003601f168201915b50505050509050919050565b826115b781611f8b565b6115c057600080fd5b82826008600080600089815260200190815260200160002060009054906101000a900467ffffffffffffffff1667ffffffffffffffff1667ffffffffffffffff1681526020019081526020016000206000878152602001908152602001600020918261162d929190613be2565b50837fb7d29e911041e8d9b843369e890bcb72c9388692ba48b65ac54e7214c4c348f78484604051611660929190613f2a565b60405180910390a250505050565b8261167881611f8b565b61168157600080fd5b837f65412581168e88a1e60c6459d7f44ae83ad0832e670826c05a4e2476b57af75284846040516116b392919061325a565b60405180910390a2603c830361170457837f52d7d861f09ab3d26239d492e8968629f95e9e318cf0b73bfddc441522a15fd26116ee8461256b565b6040516116fb9190613fa3565b60405180910390a25b816002600080600088815260200190815260200160002060009054906101000a900467ffffffffffffffff1667ffffffffffffffff1667ffffffffffffffff1681526020019081526020016000206000868152602001908152602001600020600085815260200190815260200160002090816117809190613fbe565b5050505050565b60606000803073ffffffffffffffffffffffffffffffffffffffff16846040516117b19190613908565b600060405180830381855afa9150503d80600081146117ec576040519150601f19603f3d011682016040523d82523d6000602084013e6117f1565b606091505b5091509150811561180657809250505061180e565b805160208201fd5b92915050565b60606005600080600087815260200190815260200160002060009054906101000a900467ffffffffffffffff1667ffffffffffffffff1667ffffffffffffffff1681526020019081526020016000206000858152602001908152602001600020600084815260200190815260200160002060008361ffff1661ffff16815260200190815260200160002080546118a990613a05565b80601f01602080910402602001604051908101604052809291908181526020018280546118d590613a05565b80156119225780601f106118f757610100808354040283529160200191611922565b820191906000526020600020905b81548152906001019060200180831161190557829003601f168201915b505050505090509392505050565b60606003600080600085815260200190815260200160002060009054906101000a900467ffffffffffffffff1667ffffffffffffffff1667ffffffffffffffff1681526020019081526020016000206000838152602001908152602001600020805461199b90613a05565b80601f01602080910402602001604051908101604052809291908181526020018280546119c790613a05565b8015611a145780601f106119e957610100808354040283529160200191611a14565b820191906000526020600020905b8154815290600101906020018083116119f757829003601f168201915b50505050509050919050565b600080600080600085815260200190815260200160002060009054906101000a900467ffffffffffffffff169050600960008267ffffffffffffffff1667ffffffffffffffff168152602001908152602001600020600085815260200190815260200160002060000154600960008367ffffffffffffffff1667ffffffffffffffff1681526020019081526020016000206000868152602001908152602001600020600101549250925050915091565b82611ada81611f8b565b611ae357600080fd5b600080600086815260200190815260200160002060009054906101000a900467ffffffffffffffff1690506000600460008367ffffffffffffffff1667ffffffffffffffff16815260200190815260200160002060008781526020019081526020016000208054611b5390613a05565b80601f0160208091040260200160405190810160405280929190818152602001828054611b7f90613a05565b8015611bcc5780601f10611ba157610100808354040283529160200191611bcc565b820191906000526020600020905b815481529060010190602001808311611baf57829003601f168201915b505050505090508484600460008567ffffffffffffffff1667ffffffffffffffff16815260200190815260200160002060008981526020019081526020016000209182611c1a929190613dd9565b50857f8f15ed4b723ef428f250961da8315675b507046737e19319fc1a4d81bfe87f85828787604051611c4f93929190614090565b60405180910390a2505050505050565b81611c6981611f8b565b611c7257600080fd5b611c8683603c611c818561258e565b61166e565b505050565b60006020528060005260406000206000915054906101000a900467ffffffffffffffff1681565b82611cbc81611f8b565b611cc557600080fd5b816007600080600088815260200190815260200160002060009054906101000a900467ffffffffffffffff1667ffffffffffffffff1667ffffffffffffffff16815260200190815260200160002060008681526020019081526020016000206000857bffffffffffffffffffffffffffffffffffffffffffffffffffffffff19167bffffffffffffffffffffffffffffffffffffffffffffffffffffffff1916815260200190815260200160002060006101000a81548173ffffffffffffffffffffffffffffffffffffffff021916908373ffffffffffffffffffffffffffffffffffffffff160217905550827bffffffffffffffffffffffffffffffffffffffffffffffffffffffff1916847f7c69f06bea0bdef565b709e93a147836b0063ba2dd89f02d0b7e8d931e6a6daa84604051611e01919061312a565b60405180910390a350505050565b60606002600080600086815260200190815260200160002060009054906101000a900467ffffffffffffffff1667ffffffffffffffff1667ffffffffffffffff168152602001908152602001600020600084815260200190815260200160002060008381526020019081526020016000208054611e8b90613a05565b80601f0160208091040260200160405190810160405280929190818152602001828054611eb790613a05565b8015611f045780601f10611ed957610100808354040283529160200191611f04565b820191906000526020600020905b815481529060010190602001808311611ee757829003601f168201915b5050505050905092915050565b60007f59d1d43c000000000000000000000000000000000000000000000000000000007bffffffffffffffffffffffffffffffffffffffffffffffffffffffff1916827bffffffffffffffffffffffffffffffffffffffffffffffffffffffff19161480611f845750611f83826125f2565b5b9050919050565b600060019050919050565b611f9e612d4c565b828160000181905250818160c0018181525050611fba816123f0565b92915050565b6000816000015151826020015110159050919050565b60606120068260200151611ff28460000151856020015161266c565b84600001516126e89092919063ffffffff16565b9050919050565b606061203f8260a001518360a001518460c0015161202b919061394e565b84600001516126e89092919063ffffffff16565b9050919050565b6000815183511480156120655750612064836000846000875161277d565b5b905092915050565b60008780519060200120905060006120908686896126e89092919063ffffffff16565b9050831561223e576000600560008567ffffffffffffffff1667ffffffffffffffff16815260200190815260200160002060008c8152602001908152602001600020600084815260200190815260200160002060008a61ffff1661ffff168152602001908152602001600020805461210790613a05565b90501461219157600660008467ffffffffffffffff1667ffffffffffffffff16815260200190815260200160002060008b81526020019081526020016000206000838152602001908152602001600020600081819054906101000a900461ffff1680929190612175906140c9565b91906101000a81548161ffff021916908361ffff160217905550505b600560008467ffffffffffffffff1667ffffffffffffffff16815260200190815260200160002060008b8152602001908152602001600020600083815260200190815260200160002060008961ffff1661ffff16815260200190815260200160002060006121ff9190612d97565b897f03528ed0c2a3ebc993b12ce3c16bb382f9c7d88ef7d8a1bf290eaf35955a12078a8a604051612231929190614101565b60405180910390a26123e4565b6000600560008567ffffffffffffffff1667ffffffffffffffff16815260200190815260200160002060008c8152602001908152602001600020600084815260200190815260200160002060008a61ffff1661ffff16815260200190815260200160002080546122ad90613a05565b90500361233757600660008467ffffffffffffffff1667ffffffffffffffff16815260200190815260200160002060008b81526020019081526020016000206000838152602001908152602001600020600081819054906101000a900461ffff168092919061231b90614131565b91906101000a81548161ffff021916908361ffff160217905550505b80600560008567ffffffffffffffff1667ffffffffffffffff16815260200190815260200160002060008c8152602001908152602001600020600084815260200190815260200160002060008a61ffff1661ffff16815260200190815260200160002090816123a69190613fbe565b50897f52a608b3303a48862d07a73d82fa221318c0027fbbcfb1b2329bface3f19ff2b8a8a846040516123db9392919061415b565b60405180910390a25b50505050505050505050565b8060c00151816020018181525050806000015151816020015110156125335760006124238260000151836020015161266c565b826020015161243291906141a0565b905061244b8183600001516127a190919063ffffffff16565b826040019061ffff16908161ffff168152505060028161246b91906141a0565b90506124848183600001516127a190919063ffffffff16565b826060019061ffff16908161ffff16815250506002816124a491906141a0565b90506124bd8183600001516127d090919063ffffffff16565b826080019063ffffffff16908163ffffffff16815250506004816124e191906141a0565b905060006124fc8284600001516127a190919063ffffffff16565b61ffff16905060028261250f91906141a0565b9150818360a0018181525050808261252791906141a0565b8360c001818152505050505b50565b60008061254483603c611e0f565b90506000815103612559576000915050612566565b6125628161256b565b9150505b919050565b6000601482511461257b57600080fd5b600c6101000a6020830151049050919050565b6060601467ffffffffffffffff8111156125ab576125aa6134f8565b5b6040519080825280601f01601f1916602001820160405280156125dd5781602001600182028036833780820191505090505b509050600c6101000a82026020820152919050565b60007fc8690233000000000000000000000000000000000000000000000000000000007bffffffffffffffffffffffffffffffffffffffffffffffffffffffff1916827bffffffffffffffffffffffffffffffffffffffffffffffffffffffff19161480612665575061266482612801565b5b9050919050565b6000808290505b6001156126d3578351811061268b5761268a6141d4565b5b60006126a0828661287b90919063ffffffff16565b60ff1690506001816126b291906141a0565b826126bd91906141a0565b9150600081036126cd57506126d3565b50612673565b82816126df919061394e565b91505092915050565b6060835182846126f891906141a0565b111561270357600080fd5b60008267ffffffffffffffff81111561271f5761271e6134f8565b5b6040519080825280601f01601f1916602001820160405280156127515781602001600182028036833780820191505090505b50905060008060208301915085602088010190506127708282876128a6565b8293505050509392505050565b600061278a84848461290a565b61279587878561290a565b14905095945050505050565b600082516002836127b291906141a0565b11156127bd57600080fd5b61ffff8260028501015116905092915050565b600082516004836127e191906141a0565b11156127ec57600080fd5b63ffffffff8260048501015116905092915050565b60007f691f3431000000000000000000000000000000000000000000000000000000007bffffffffffffffffffffffffffffffffffffffffffffffffffffffff1916827bffffffffffffffffffffffffffffffffffffffffffffffffffffffff19161480612874575061287382612936565b5b9050919050565b60008282815181106128905761288f613d44565b5b602001015160f81c60f81b60f81c905092915050565b5b602081106128e557815183526020836128c091906141a0565b92506020826128cf91906141a0565b91506020816128de919061394e565b90506128a7565b60006001826020036101000a0390508019835116818551168181178652505050505050565b60008351828461291a91906141a0565b111561292557600080fd5b818360208601012090509392505050565b60007f124a319c000000000000000000000000000000000000000000000000000000007bffffffffffffffffffffffffffffffffffffffffffffffffffffffff1916827bffffffffffffffffffffffffffffffffffffffffffffffffffffffff191614806129a957506129a8826129b0565b5b9050919050565b60007fa8fa5682000000000000000000000000000000000000000000000000000000007bffffffffffffffffffffffffffffffffffffffffffffffffffffffff1916827bffffffffffffffffffffffffffffffffffffffffffffffffffffffff19161480612a7b57507f5c98042b000000000000000000000000000000000000000000000000000000007bffffffffffffffffffffffffffffffffffffffffffffffffffffffff1916827bffffffffffffffffffffffffffffffffffffffffffffffffffffffff1916145b80612a8b5750612a8a82612a92565b5b9050919050565b60007fbc1c58d1000000000000000000000000000000000000000000000000000000007bffffffffffffffffffffffffffffffffffffffffffffffffffffffff1916827bffffffffffffffffffffffffffffffffffffffffffffffffffffffff19161480612b055750612b0482612b0c565b5b9050919050565b60007f3b3b57de000000000000000000000000000000000000000000000000000000007bffffffffffffffffffffffffffffffffffffffffffffffffffffffff1916827bffffffffffffffffffffffffffffffffffffffffffffffffffffffff19161480612bd757507ff1cb7e06000000000000000000000000000000000000000000000000000000007bffffffffffffffffffffffffffffffffffffffffffffffffffffffff1916827bffffffffffffffffffffffffffffffffffffffffffffffffffffffff1916145b80612be75750612be682612bee565b5b9050919050565b60007f2203ab56000000000000000000000000000000000000000000000000000000007bffffffffffffffffffffffffffffffffffffffffffffffffffffffff1916827bffffffffffffffffffffffffffffffffffffffffffffffffffffffff19161480612c615750612c6082612c68565b5b9050919050565b60007fd700ff33000000000000000000000000000000000000000000000000000000007bffffffffffffffffffffffffffffffffffffffffffffffffffffffff1916827bffffffffffffffffffffffffffffffffffffffffffffffffffffffff19161480612cdb5750612cda82612ce2565b5b9050919050565b60007f01ffc9a7000000000000000000000000000000000000000000000000000000007bffffffffffffffffffffffffffffffffffffffffffffffffffffffff1916827bffffffffffffffffffffffffffffffffffffffffffffffffffffffff1916149050919050565b6040518060e001604052806060815260200160008152602001600061ffff168152602001600061ffff168152602001600063ffffffff16815260200160008152602001600081525090565b508054612da390613a05565b6000825580601f10612db55750612dd4565b601f016020900490600052602060002090810190612dd39190612dd7565b5b50565b5b80821115612df0576000816000905550600101612dd8565b5090565b6000604051905090565b600080fd5b600080fd5b60007fffffffff0000000000000000000000000000000000000000000000000000000082169050919050565b612e3d81612e08565b8114612e4857600080fd5b50565b600081359050612e5a81612e34565b92915050565b600060208284031215612e7657612e75612dfe565b5b6000612e8484828501612e4b565b91505092915050565b60008115159050919050565b612ea281612e8d565b82525050565b6000602082019050612ebd6000830184612e99565b92915050565b6000819050919050565b612ed681612ec3565b8114612ee157600080fd5b50565b600081359050612ef381612ecd565b92915050565b600080fd5b600080fd5b600080fd5b60008083601f840112612f1e57612f1d612ef9565b5b8235905067ffffffffffffffff811115612f3b57612f3a612efe565b5b602083019150836001820283011115612f5757612f56612f03565b5b9250929050565b600080600060408486031215612f7757612f76612dfe565b5b6000612f8586828701612ee4565b935050602084013567ffffffffffffffff811115612fa657612fa5612e03565b5b612fb286828701612f08565b92509250509250925092565b60008083601f840112612fd457612fd3612ef9565b5b8235905067ffffffffffffffff811115612ff157612ff0612efe565b5b60208301915083600182028301111561300d5761300c612f03565b5b9250929050565b6000806000806000606086880312156130305761302f612dfe565b5b600061303e88828901612ee4565b955050602086013567ffffffffffffffff81111561305f5761305e612e03565b5b61306b88828901612fbe565b9450945050604086013567ffffffffffffffff81111561308e5761308d612e03565b5b61309a88828901612fbe565b92509250509295509295909350565b600080604083850312156130c0576130bf612dfe565b5b60006130ce85828601612ee4565b92505060206130df85828601612e4b565b9150509250929050565b600073ffffffffffffffffffffffffffffffffffffffff82169050919050565b6000613114826130e9565b9050919050565b61312481613109565b82525050565b600060208201905061313f600083018461311b565b92915050565b6000819050919050565b61315881613145565b811461316357600080fd5b50565b6000813590506131758161314f565b92915050565b6000806040838503121561319257613191612dfe565b5b60006131a085828601612ee4565b92505060206131b185828601613166565b9150509250929050565b6131c481613145565b82525050565b600081519050919050565b600082825260208201905092915050565b60005b838110156132045780820151818401526020810190506131e9565b60008484015250505050565b6000601f19601f8301169050919050565b600061322c826131ca565b61323681856131d5565b93506132468185602086016131e6565b61324f81613210565b840191505092915050565b600060408201905061326f60008301856131bb565b81810360208301526132818184613221565b90509392505050565b6000806000606084860312156132a3576132a2612dfe565b5b60006132b186828701612ee4565b93505060206132c286828701612ee4565b92505060406132d386828701612ee4565b9150509250925092565b6000602082840312156132f3576132f2612dfe565b5b600061330184828501612ee4565b91505092915050565b6000613315826130e9565b9050919050565b6133258161330a565b82525050565b6000602082019050613340600083018461331c565b92915050565b6000806040838503121561335d5761335c612dfe565b5b600061336b85828601612ee4565b925050602061337c85828601612ee4565b9150509250929050565b60008060006040848603121561339f5761339e612dfe565b5b60006133ad86828701612ee4565b935050602084013567ffffffffffffffff8111156133ce576133cd612e03565b5b6133da86828701612fbe565b92509250509250925092565b600081519050919050565b600082825260208201905092915050565b600061340d826133e6565b61341781856133f1565b93506134278185602086016131e6565b61343081613210565b840191505092915050565b600060208201905081810360008301526134558184613402565b905092915050565b600060208201905081810360008301526134778184613221565b905092915050565b6000806000806060858703121561349957613498612dfe565b5b60006134a787828801612ee4565b94505060206134b887828801613166565b935050604085013567ffffffffffffffff8111156134d9576134d8612e03565b5b6134e587828801612f08565b925092505092959194509250565b600080fd5b7f4e487b7100000000000000000000000000000000000000000000000000000000600052604160045260246000fd5b61353082613210565b810181811067ffffffffffffffff8211171561354f5761354e6134f8565b5b80604052505050565b6000613562612df4565b905061356e8282613527565b919050565b600067ffffffffffffffff82111561358e5761358d6134f8565b5b61359782613210565b9050602081019050919050565b82818337600083830152505050565b60006135c66135c184613573565b613558565b9050828152602081018484840111156135e2576135e16134f3565b5b6135ed8482856135a4565b509392505050565b600082601f83011261360a57613609612ef9565b5b813561361a8482602086016135b3565b91505092915050565b60008060006060848603121561363c5761363b612dfe565b5b600061364a86828701612ee4565b935050602061365b86828701613166565b925050604084013567ffffffffffffffff81111561367c5761367b612e03565b5b613688868287016135f5565b9150509250925092565b600080604083850312156136a9576136a8612dfe565b5b600083013567ffffffffffffffff8111156136c7576136c6612e03565b5b6136d3858286016135f5565b925050602083013567ffffffffffffffff8111156136f4576136f3612e03565b5b613700858286016135f5565b9150509250929050565b600061ffff82169050919050565b6137218161370a565b811461372c57600080fd5b50565b60008135905061373e81613718565b92915050565b60008060006060848603121561375d5761375c612dfe565b5b600061376b86828701612ee4565b935050602061377c86828701612ee4565b925050604061378d8682870161372f565b9150509250925092565b6137a081612ec3565b82525050565b60006040820190506137bb6000830185613797565b6137c86020830184613797565b9392505050565b6137d881613109565b81146137e357600080fd5b50565b6000813590506137f5816137cf565b92915050565b6000806040838503121561381257613811612dfe565b5b600061382085828601612ee4565b9250506020613831858286016137e6565b9150509250929050565b600067ffffffffffffffff82169050919050565b6138588161383b565b82525050565b6000602082019050613873600083018461384f565b92915050565b60008060006060848603121561389257613891612dfe565b5b60006138a086828701612ee4565b93505060206138b186828701612e4b565b92505060406138c2868287016137e6565b9150509250925092565b600081905092915050565b60006138e2826131ca565b6138ec81856138cc565b93506138fc8185602086016131e6565b80840191505092915050565b600061391482846138d7565b915081905092915050565b7f4e487b7100000000000000000000000000000000000000000000000000000000600052601160045260246000fd5b600061395982613145565b915061396483613145565b925082820390508181111561397c5761397b61391f565b5b92915050565b600081905092915050565b60006139998385613982565b93506139a68385846135a4565b82840190509392505050565b60006139bf82848661398d565b91508190509392505050565b600082905092915050565b7f4e487b7100000000000000000000000000000000000000000000000000000000600052602260045260246000fd5b60006002820490506001821680613a1d57607f821691505b602082108103613a3057613a2f6139d6565b5b50919050565b60008190508160005260206000209050919050565b60006020601f8301049050919050565b600082821b905092915050565b600060088302613a987fffffffffffffffffffffffffffffffffffffffffffffffffffffffffffffffff82613a5b565b613aa28683613a5b565b95508019841693508086168417925050509392505050565b6000819050919050565b6000613adf613ada613ad584613145565b613aba565b613145565b9050919050565b6000819050919050565b613af983613ac4565b613b0d613b0582613ae6565b848454613a68565b825550505050565b600090565b613b22613b15565b613b2d818484613af0565b505050565b5b81811015613b5157613b46600082613b1a565b600181019050613b33565b5050565b601f821115613b9657613b6781613a36565b613b7084613a4b565b81016020851015613b7f578190505b613b93613b8b85613a4b565b830182613b32565b50505b505050565b600082821c905092915050565b6000613bb960001984600802613b9b565b1980831691505092915050565b6000613bd28383613ba8565b9150826002028217905092915050565b613bec83836139cb565b67ffffffffffffffff811115613c0557613c046134f8565b5b613c0f8254613a05565b613c1a828285613b55565b6000601f831160018114613c495760008415613c37578287013590505b613c418582613bc6565b865550613ca9565b601f198416613c5786613a36565b60005b82811015613c7f57848901358255600182019150602085019450602081019050613c5a565b86831015613c9c5784890135613c98601f891682613ba8565b8355505b6001600288020188555050505b50505050505050565b6000613cbe83856133f1565b9350613ccb8385846135a4565b613cd483613210565b840190509392505050565b60006040820190508181036000830152613cfa818688613cb2565b90508181036020830152613d0f818486613cb2565b905095945050505050565b613d2381612e08565b82525050565b6000602082019050613d3e6000830184613d1a565b92915050565b7f4e487b7100000000000000000000000000000000000000000000000000000000600052603260045260246000fd5b600082905092915050565b60008190508160005260206000209050919050565b601f821115613dd457613da581613d7e565b613dae84613a4b565b81016020851015613dbd578190505b613dd1613dc985613a4b565b830182613b32565b50505b505050565b613de38383613d73565b67ffffffffffffffff811115613dfc57613dfb6134f8565b5b613e068254613a05565b613e11828285613d93565b6000601f831160018114613e405760008415613e2e578287013590505b613e388582613bc6565b865550613ea0565b601f198416613e4e86613d7e565b60005b82811015613e7657848901358255600182019150602085019450602081019050613e51565b86831015613e935784890135613e8f601f891682613ba8565b8355505b6001600288020188555050505b50505050505050565b6000613eb583856131d5565b9350613ec28385846135a4565b613ecb83613210565b840190509392505050565b60006020820190508181036000830152613ef1818486613ea9565b90509392505050565b6000613f058261383b565b915067ffffffffffffffff8203613f1f57613f1e61391f565b5b600182019050919050565b60006020820190508181036000830152613f45818486613cb2565b90509392505050565b6000613f69613f64613f5f846130e9565b613aba565b6130e9565b9050919050565b6000613f7b82613f4e565b9050919050565b6000613f8d82613f70565b9050919050565b613f9d81613f82565b82525050565b6000602082019050613fb86000830184613f94565b92915050565b613fc7826131ca565b67ffffffffffffffff811115613fe057613fdf6134f8565b5b613fea8254613a05565b613ff5828285613d93565b600060209050601f8311600181146140285760008415614016578287015190505b6140208582613bc6565b865550614088565b601f19841661403686613d7e565b60005b8281101561405e57848901518255600182019150602085019450602081019050614039565b8683101561407b5784890151614077601f891682613ba8565b8355505b6001600288020188555050505b505050505050565b600060408201905081810360008301526140aa8186613221565b905081810360208301526140bf818486613ea9565b9050949350505050565b60006140d48261370a565b9150600082036140e7576140e661391f565b5b600182039050919050565b6140fb8161370a565b82525050565b6000604082019050818103600083015261411b8185613221565b905061412a60208301846140f2565b9392505050565b600061413c8261370a565b915061ffff82036141505761414f61391f565b5b600182019050919050565b600060608201905081810360008301526141758186613221565b905061418460208301856140f2565b81810360408301526141968184613221565b9050949350505050565b60006141ab82613145565b91506141b683613145565b92508282019050808211156141ce576141cd61391f565b5b92915050565b7f4e487b7100000000000000000000000000000000000000000000000000000000600052600160045260246000fdfea264697066735822122074a3664e7a35ec49a342883a0025f0b8ad967ef1bcc655d1db39728ab28a0b9b64736f6c63430008110033",
  "linkReferences": {},
  "deployedLinkReferences": {}
}