{
  "_format": "hh-sol-artifact-1",
  "contractName": "OpenResolver",
  "sourceName": "contracts/OpenResolver.sol",
  "abi": [
    {
      "anonymous": false,
      "inputs": [
        {
          "indexed": true,
          "internalType": "bytes32",
          "name": "node",
          "type": "bytes32"
        },
        {
          "indexed": true,
          "internalType": "uint256",
          "name": "contentType",
          "type": "uint256"
        }
      ],
      "name": "ABIChanged",
      "type": "event"
    },
    {
      "anonymous": false,
      "inputs": [
        {
          "indexed": true,
          "internalType": "bytes32",
          "name": "node",
          "type": "bytes32"
        },
        {
          "indexed": false,
          "internalType": "address",
          "name": "a",
          "type": "address"
        }
      ],
      "name": "AddrChanged",
      "type": "event"
    },
    {
      "anonymous": false,
      "inputs": [
        {
          "indexed": true,
          "internalType": "bytes32",
          "name": "node",
          "type": "bytes32"
        },
        {
          "indexed": false,
          "internalType": "uint256",
          "name": "coinType",
          "type": "uint256"
        },
        {
          "indexed": false,
          "internalType": "bytes",
          "name": "newAddress",
          "type": "bytes"
        }
      ],
      "name": "AddressChanged",
      "type": "event"
    },
    {
      "anonymous": false,
      "inputs": [
        {
          "indexed": true,
          "internalType": "bytes32",
          "name": "node",
          "type": "bytes32"
        },
        {
          "indexed": false,
          "internalType": "bytes",
          "name": "hash",
          "type": "bytes"
        }
      ],
      "name": "ContenthashChanged",
      "type": "event"
    },
    {
      "anonymous": false,
      "inputs": [
        {
          "indexed": true,
          "internalType": "bytes32",
          "name": "node",
          "type": "bytes32"
        },
        {
          "indexed": false,
          "internalType": "bytes",
          "name": "name",
          "type": "bytes"
        },
        {
          "indexed": false,
          "internalType": "uint16",
          "name": "resource",
          "type": "uint16"
        },
        {
          "indexed": false,
          "internalType": "bytes",
          "name": "record",
          "type": "bytes"
        }
      ],
      "name": "DNSRecordChanged",
      "type": "event"
    },
    {
      "anonymous": false,
      "inputs": [
        {
          "indexed": true,
          "internalType": "bytes32",
          "name": "node",
          "type": "bytes32"
        },
        {
          "indexed": false,
          "internalType": "bytes",
          "name": "name",
          "type": "bytes"
        },
        {
          "indexed": false,
          "internalType": "uint16",
          "name": "resource",
          "type": "uint16"
        }
      ],
      "name": "DNSRecordDeleted",
      "type": "event"
    },
    {
      "anonymous": false,
      "inputs": [
        {
          "indexed": true,
          "internalType": "bytes32",
          "name": "node",
          "type": "bytes32"
        },
        {
          "indexed": false,
          "internalType": "bytes",
          "name": "lastzonehash",
          "type": "bytes"
        },
        {
          "indexed": false,
          "internalType": "bytes",
          "name": "zonehash",
          "type": "bytes"
        }
      ],
      "name": "DNSZonehashChanged",
      "type": "event"
    },
    {
      "anonymous": false,
      "inputs": [
        {
          "indexed": true,
          "internalType": "bytes32",
          "name": "node",
          "type": "bytes32"
        },
        {
          "indexed": true,
          "internalType": "bytes4",
          "name": "interfaceID",
          "type": "bytes4"
        },
        {
          "indexed": false,
          "internalType": "address",
          "name": "implementer",
          "type": "address"
        }
      ],
      "name": "InterfaceChanged",
      "type": "event"
    },
    {
      "anonymous": false,
      "inputs": [
        {
          "indexed": true,
          "internalType": "bytes32",
          "name": "node",
          "type": "bytes32"
        },
        {
          "indexed": false,
          "internalType": "string",
          "name": "name",
          "type": "string"
        }
      ],
      "name": "NameChanged",
      "type": "event"
    },
    {
      "anonymous": false,
      "inputs": [
        {
          "indexed": true,
          "internalType": "address",
          "name": "previousOwner",
          "type": "address"
        },
        {
          "indexed": true,
          "internalType": "address",
          "name": "newOwner",
          "type": "address"
        }
      ],
      "name": "OwnershipTransferred",
      "type": "event"
    },
    {
      "anonymous": false,
      "inputs": [
        {
          "indexed": true,
          "internalType": "bytes32",
          "name": "node",
          "type": "bytes32"
        },
        {
          "indexed": false,
          "internalType": "bytes32",
          "name": "x",
          "type": "bytes32"
        },
        {
          "indexed": false,
          "internalType": "bytes32",
          "name": "y",
          "type": "bytes32"
        }
      ],
      "name": "PubkeyChanged",
      "type": "event"
    },
    {
      "anonymous": false,
      "inputs": [
        {
          "indexed": true,
          "internalType": "bytes32",
          "name": "node",
          "type": "bytes32"
        },
        {
          "indexed": true,
          "internalType": "string",
          "name": "indexedKey",
          "type": "string"
        },
        {
          "indexed": false,
          "internalType": "string",
          "name": "key",
          "type": "string"
        },
        {
          "indexed": false,
          "internalType": "string",
          "name": "value",
          "type": "string"
        }
      ],
      "name": "TextChanged",
      "type": "event"
    },
    {
      "anonymous": false,
      "inputs": [
        {
          "indexed": true,
          "internalType": "bytes32",
          "name": "node",
          "type": "bytes32"
        },
        {
          "indexed": false,
          "internalType": "uint64",
          "name": "newVersion",
          "type": "uint64"
        }
      ],
      "name": "VersionChanged",
      "type": "event"
    },
    {
      "inputs": [
        {
          "internalType": "bytes32",
          "name": "node",
          "type": "bytes32"
        },
        {
          "internalType": "uint256",
          "name": "contentTypes",
          "type": "uint256"
        }
      ],
      "name": "ABI",
      "outputs": [
        {
          "internalType": "uint256",
          "name": "",
          "type": "uint256"
        },
        {
          "internalType": "bytes",
          "name": "",
          "type": "bytes"
        }
      ],
      "stateMutability": "view",
      "type": "function"
    },
    {
      "inputs": [
        {
          "internalType": "bytes32",
          "name": "node",
          "type": "bytes32"
        }
      ],
      "name": "addr",
      "outputs": [
        {
          "internalType": "address payable",
          "name": "",
          "type": "address"
        }
      ],
      "stateMutability": "view",
      "type": "function"
    },
    {
      "inputs": [
        {
          "internalType": "bytes32",
          "name": "node",
          "type": "bytes32"
        },
        {
          "internalType": "uint256",
          "name": "coinType",
          "type": "uint256"
        }
      ],
      "name": "addr",
      "outputs": [
        {
          "internalType": "bytes",
          "name": "",
          "type": "bytes"
        }
      ],
      "stateMutability": "view",
      "type": "function"
    },
    {
      "inputs": [
        {
          "internalType": "bytes32",
          "name": "node",
          "type": "bytes32"
        }
      ],
      "name": "clearRecords",
      "outputs": [],
      "stateMutability": "nonpayable",
      "type": "function"
    },
    {
      "inputs": [
        {
          "internalType": "bytes32",
          "name": "node",
          "type": "bytes32"
        }
      ],
      "name": "contenthash",
      "outputs": [
        {
          "internalType": "bytes",
          "name": "",
          "type": "bytes"
        }
      ],
      "stateMutability": "view",
      "type": "function"
    },
    {
      "inputs": [
        {
          "internalType": "bytes32",
          "name": "node",
          "type": "bytes32"
        },
        {
          "internalType": "bytes32",
          "name": "name",
          "type": "bytes32"
        },
        {
          "internalType": "uint16",
          "name": "resource",
          "type": "uint16"
        }
      ],
      "name": "dnsRecord",
      "outputs": [
        {
          "internalType": "bytes",
          "name": "",
          "type": "bytes"
        }
      ],
      "stateMutability": "view",
      "type": "function"
    },
    {
      "inputs": [
        {
          "internalType": "bytes32",
          "name": "node",
          "type": "bytes32"
        },
        {
          "internalType": "bytes32",
          "name": "name",
          "type": "bytes32"
        }
      ],
      "name": "hasDNSRecords",
      "outputs": [
        {
          "internalType": "bool",
          "name": "",
          "type": "bool"
        }
      ],
      "stateMutability": "view",
      "type": "function"
    },
    {
      "inputs": [
        {
          "internalType": "bytes32",
          "name": "node",
          "type": "bytes32"
        },
        {
          "internalType": "bytes4",
          "name": "interfaceID",
          "type": "bytes4"
        }
      ],
      "name": "interfaceImplementer",
      "outputs": [
        {
          "internalType": "address",
          "name": "",
          "type": "address"
        }
      ],
      "stateMutability": "view",
      "type": "function"
    },
    {
      "inputs": [
        {
          "internalType": "bytes32",
          "name": "node",
          "type": "bytes32"
        }
      ],
      "name": "name",
      "outputs": [
        {
          "internalType": "string",
          "name": "",
          "type": "string"
        }
      ],
      "stateMutability": "view",
      "type": "function"
    },
    {
      "inputs": [],
      "name": "owner",
      "outputs": [
        {
          "internalType": "address",
          "name": "",
          "type": "address"
        }
      ],
      "stateMutability": "view",
      "type": "function"
    },
    {
      "inputs": [
        {
          "internalType": "bytes32",
          "name": "node",
          "type": "bytes32"
        }
      ],
      "name": "pubkey",
      "outputs": [
        {
          "internalType": "bytes32",
          "name": "x",
          "type": "bytes32"
        },
        {
          "internalType": "bytes32",
          "name": "y",
          "type": "bytes32"
        }
      ],
      "stateMutability": "view",
      "type": "function"
    },
    {
      "inputs": [
        {
          "internalType": "bytes32",
          "name": "",
          "type": "bytes32"
        }
      ],
      "name": "recordVersions",
      "outputs": [
        {
          "internalType": "uint64",
          "name": "",
          "type": "uint64"
        }
      ],
      "stateMutability": "view",
      "type": "function"
    },
    {
      "inputs": [],
      "name": "renounceOwnership",
      "outputs": [],
      "stateMutability": "nonpayable",
      "type": "function"
    },
    {
      "inputs": [
        {
          "internalType": "bytes",
          "name": "",
          "type": "bytes"
        },
        {
          "internalType": "bytes",
          "name": "data",
          "type": "bytes"
        }
      ],
      "name": "resolve",
      "outputs": [
        {
          "internalType": "bytes",
          "name": "",
          "type": "bytes"
        }
      ],
      "stateMutability": "view",
      "type": "function"
    },
    {
      "inputs": [
        {
          "internalType": "bytes32",
          "name": "node",
          "type": "bytes32"
        },
        {
          "internalType": "uint256",
          "name": "contentType",
          "type": "uint256"
        },
        {
          "internalType": "bytes",
          "name": "data",
          "type": "bytes"
        }
      ],
      "name": "setABI",
      "outputs": [],
      "stateMutability": "nonpayable",
      "type": "function"
    },
    {
      "inputs": [
        {
          "internalType": "bytes32",
          "name": "node",
          "type": "bytes32"
        },
        {
          "internalType": "uint256",
          "name": "coinType",
          "type": "uint256"
        },
        {
          "internalType": "bytes",
          "name": "a",
          "type": "bytes"
        }
      ],
      "name": "setAddr",
      "outputs": [],
      "stateMutability": "nonpayable",
      "type": "function"
    },
    {
      "inputs": [
        {
          "internalType": "bytes32",
          "name": "node",
          "type": "bytes32"
        },
        {
          "internalType": "address",
          "name": "a",
          "type": "address"
        }
      ],
      "name": "setAddr",
      "outputs": [],
      "stateMutability": "nonpayable",
      "type": "function"
    },
    {
      "inputs": [
        {
          "internalType": "bytes32",
          "name": "node",
          "type": "bytes32"
        },
        {
          "internalType": "bytes",
          "name": "hash",
          "type": "bytes"
        }
      ],
      "name": "setContenthash",
      "outputs": [],
      "stateMutability": "nonpayable",
      "type": "function"
    },
    {
      "inputs": [
        {
          "internalType": "bytes32",
          "name": "node",
          "type": "bytes32"
        },
        {
          "internalType": "bytes",
          "name": "data",
          "type": "bytes"
        }
      ],
      "name": "setDNSRecords",
      "outputs": [],
      "stateMutability": "nonpayable",
      "type": "function"
    },
    {
      "inputs": [
        {
          "internalType": "bytes32",
          "name": "node",
          "type": "bytes32"
        },
        {
          "internalType": "bytes4",
          "name": "interfaceID",
          "type": "bytes4"
        },
        {
          "internalType": "address",
          "name": "implementer",
          "type": "address"
        }
      ],
      "name": "setInterface",
      "outputs": [],
      "stateMutability": "nonpayable",
      "type": "function"
    },
    {
      "inputs": [
        {
          "internalType": "bytes32",
          "name": "node",
          "type": "bytes32"
        },
        {
          "internalType": "string",
          "name": "newName",
          "type": "string"
        }
      ],
      "name": "setName",
      "outputs": [],
      "stateMutability": "nonpayable",
      "type": "function"
    },
    {
      "inputs": [
        {
          "internalType": "bytes32",
          "name": "node",
          "type": "bytes32"
        },
        {
          "internalType": "bytes32",
          "name": "x",
          "type": "bytes32"
        },
        {
          "internalType": "bytes32",
          "name": "y",
          "type": "bytes32"
        }
      ],
      "name": "setPubkey",
      "outputs": [],
      "stateMutability": "nonpayable",
      "type": "function"
    },
    {
      "inputs": [
        {
          "internalType": "bytes32",
          "name": "node",
          "type": "bytes32"
        },
        {
          "internalType": "string",
          "name": "key",
          "type": "string"
        },
        {
          "internalType": "string",
          "name": "value",
          "type": "string"
        }
      ],
      "name": "setText",
      "outputs": [],
      "stateMutability": "nonpayable",
      "type": "function"
    },
    {
      "inputs": [
        {
          "internalType": "bytes32",
          "name": "node",
          "type": "bytes32"
        },
        {
          "internalType": "bytes",
          "name": "hash",
          "type": "bytes"
        }
      ],
      "name": "setZonehash",
      "outputs": [],
      "stateMutability": "nonpayable",
      "type": "function"
    },
    {
      "inputs": [
        {
          "internalType": "bytes4",
          "name": "interfaceID",
          "type": "bytes4"
        }
      ],
      "name": "supportsInterface",
      "outputs": [
        {
          "internalType": "bool",
          "name": "",
          "type": "bool"
        }
      ],
      "stateMutability": "view",
      "type": "function"
    },
    {
      "inputs": [
        {
          "internalType": "bytes32",
          "name": "node",
          "type": "bytes32"
        },
        {
          "internalType": "string",
          "name": "key",
          "type": "string"
        }
      ],
      "name": "text",
      "outputs": [
        {
          "internalType": "string",
          "name": "",
          "type": "string"
        }
      ],
      "stateMutability": "view",
      "type": "function"
    },
    {
      "inputs": [
        {
          "internalType": "address",
          "name": "newOwner",
          "type": "address"
        }
      ],
      "name": "transferOwnership",
      "outputs": [],
      "stateMutability": "nonpayable",
      "type": "function"
    },
    {
      "inputs": [
        {
          "internalType": "bytes32",
          "name": "node",
          "type": "bytes32"
        }
      ],
      "name": "zonehash",
      "outputs": [
        {
          "internalType": "bytes",
          "name": "",
          "type": "bytes"
        }
      ],
      "stateMutability": "view",
      "type": "function"
    }
  ],
  "bytecode": "0x60806040523480156200001157600080fd5b5062000032620000266200003860201b60201c565b6200004060201b60201c565b62000104565b600033905090565b60008060009054906101000a900473ffffffffffffffffffffffffffffffffffffffff169050816000806101000a81548173ffffffffffffffffffffffffffffffffffffffff021916908373ffffffffffffffffffffffffffffffffffffffff1602179055508173ffffffffffffffffffffffffffffffffffffffff168173ffffffffffffffffffffffffffffffffffffffff167f8be0079c531659141344cd1fd0a4f28419497f9722a3daafe3b4186f6b6457e060405160405180910390a35050565b61460780620001146000396000f3fe608060405234801561001057600080fd5b50600436106101c45760003560e01c8063715018a6116100f9578063c869023311610097578063d700ff3311610071578063d700ff331461054b578063e59d895d1461057b578063f1cb7e0614610597578063f2fde38b146105c7576101c4565b8063c8690233146104e2578063ce3decdc14610513578063d5fa2b001461052f576101c4565b80638da5cb5b116100d35780638da5cb5b146104345780639061b92314610452578063a8fa568214610482578063bc1c58d1146104b2576101c4565b8063715018a6146103f257806377372213146103fc5780638b95dd7114610418576101c4565b80633603d7581161016657806359d1d43c1161014057806359d1d43c146103465780635c98042b14610376578063623195b0146103a6578063691f3431146103c2576101c4565b80633603d758146102ca5780633b3b57de146102e65780634cbf6ba414610316576101c4565b8063124a319c116101a2578063124a319c146102315780632203ab561461026157806329cd62ea14610292578063304e6ade146102ae576101c4565b806301ffc9a7146101c95780630af179d7146101f957806310f13a8c14610215575b600080fd5b6101e360048036038101906101de9190613103565b6105e3565b6040516101f0919061314b565b60405180910390f35b610213600480360381019061020e9190613201565b6105f5565b005b61022f600480360381019061022a91906132b7565b610855565b005b61024b6004803603810190610246919061334c565b610953565b60405161025891906133cd565b60405180910390f35b61027b6004803603810190610276919061341e565b610daf565b6040516102899291906134fd565b60405180910390f35b6102ac60048036038101906102a7919061352d565b610f30565b005b6102c860048036038101906102c39190613201565b61100e565b005b6102e460048036038101906102df9190613580565b6110d0565b005b61030060048036038101906102fb9190613580565b6111a4565b60405161030d91906135ce565b60405180910390f35b610330600480360381019061032b91906135e9565b6111d9565b60405161033d919061314b565b60405180910390f35b610360600480360381019061035b9190613629565b611269565b60405161036d91906136de565b60405180910390f35b610390600480360381019061038b9190613580565b61137a565b60405161039d9190613700565b60405180910390f35b6103c060048036038101906103bb9190613722565b61146b565b005b6103dc60048036038101906103d79190613580565b61154e565b6040516103e991906136de565b60405180910390f35b6103fa61163f565b005b61041660048036038101906104119190613629565b611653565b005b610432600480360381019061042d91906138c6565b611715565b005b61043c61182f565b60405161044991906133cd565b60405180910390f35b61046c60048036038101906104679190613935565b611858565b6040516104799190613700565b60405180910390f35b61049c600480360381019061049791906139e7565b6118e5565b6040516104a99190613700565b60405180910390f35b6104cc60048036038101906104c79190613580565b611a02565b6040516104d99190613700565b60405180910390f35b6104fc60048036038101906104f79190613580565b611af3565b60405161050a929190613a49565b60405180910390f35b61052d60048036038101906105289190613201565b611ba4565b005b61054960048036038101906105449190613a9e565b611d34565b005b61056560048036038101906105609190613580565b611d60565b6040516105729190613b01565b60405180910390f35b61059560048036038101906105909190613b1c565b611d87565b005b6105b160048036038101906105ac919061341e565b611ee5565b6040516105be9190613700565b60405180910390f35b6105e160048036038101906105dc9190613b6f565b611fe8565b005b60006105ee8261206b565b9050919050565b826105ff816120e5565b61060857600080fd5b600080606080600080600160008b815260200190815260200160002060009054906101000a900467ffffffffffffffff169050600061069560008b8b8080601f016020809104026020016040519081016040528093929190818152602001838380828437600081840152601f19601f8201169050808301925050505050505061212490919063ffffffff16565b90505b6106a18161214e565b6107d75760008761ffff16036106fc57806040015196506106c181612164565b9450846040516020016106d49190613bd8565b6040516020818303038152906040528051906020012092506106f58161219b565b93506107c9565b600061070782612164565b9050816040015161ffff168861ffff16141580610734575061073281876121d490919063ffffffff16565b155b156107c7576107a08c878a8e8e8080601f016020809104026020016040519081016040528093929190818152602001838380828437600081840152601f19601f820116905080830192505050505050508b8c88602001516107959190613c1e565b60008c51148a6121fb565b8160400151975081602001519650809550858051906020012093506107c48261219b565b94505b505b6107d28161257e565b610698565b50600084511115610849576108488a85888c8c8080601f016020809104026020016040519081016040528093929190818152602001838380828437600081840152601f19601f82011690508083019250505050505050898a8f8f905061083d9190613c1e565b60008a5114886121fb565b5b50505050505050505050565b8461085f816120e5565b61086857600080fd5b8282600b6000600160008b815260200190815260200160002060009054906101000a900467ffffffffffffffff1667ffffffffffffffff1667ffffffffffffffff168152602001908152602001600020600089815260200190815260200160002087876040516108d9929190613c82565b908152602001604051809103902091826108f4929190613eb2565b508484604051610905929190613c82565b6040518091039020867f448bc014f1536726cf8d54ff3d6481ed3cbc683c2591ca204274009afa09b1a1878787876040516109439493929190613faf565b60405180910390a3505050505050565b600080600860006001600087815260200190815260200160002060009054906101000a900467ffffffffffffffff1667ffffffffffffffff1667ffffffffffffffff16815260200190815260200160002060008581526020019081526020016000206000847bffffffffffffffffffffffffffffffffffffffffffffffffffffffff19167bffffffffffffffffffffffffffffffffffffffffffffffffffffffff1916815260200190815260200160002060009054906101000a900473ffffffffffffffffffffffffffffffffffffffff169050600073ffffffffffffffffffffffffffffffffffffffff168173ffffffffffffffffffffffffffffffffffffffff1614610a645780915050610da9565b6000610a6f856111a4565b9050600073ffffffffffffffffffffffffffffffffffffffff168173ffffffffffffffffffffffffffffffffffffffff1603610ab057600092505050610da9565b6000808273ffffffffffffffffffffffffffffffffffffffff167f01ffc9a700000000000000000000000000000000000000000000000000000000604051602401610afb9190613ff9565b6040516020818303038152906040527f01ffc9a7000000000000000000000000000000000000000000000000000000007bffffffffffffffffffffffffffffffffffffffffffffffffffffffff19166020820180517bffffffffffffffffffffffffffffffffffffffffffffffffffffffff8381831617835250505050604051610b859190613bd8565b600060405180830381855afa9150503d8060008114610bc0576040519150601f19603f3d011682016040523d82523d6000602084013e610bc5565b606091505b5091509150811580610bd8575060208151105b80610c265750600060f81b81601f81518110610bf757610bf6614014565b5b602001015160f81c60f81b7effffffffffffffffffffffffffffffffffffffffffffffffffffffffffffff1916145b15610c38576000945050505050610da9565b8273ffffffffffffffffffffffffffffffffffffffff1686604051602401610c609190613ff9565b6040516020818303038152906040527f01ffc9a7000000000000000000000000000000000000000000000000000000007bffffffffffffffffffffffffffffffffffffffffffffffffffffffff19166020820180517bffffffffffffffffffffffffffffffffffffffffffffffffffffffff8381831617835250505050604051610cea9190613bd8565b600060405180830381855afa9150503d8060008114610d25576040519150601f19603f3d011682016040523d82523d6000602084013e610d2a565b606091505b508092508193505050811580610d41575060208151105b80610d8f5750600060f81b81601f81518110610d6057610d5f614014565b5b602001015160f81c60f81b7effffffffffffffffffffffffffffffffffffffffffffffffffffffffffffff1916145b15610da1576000945050505050610da9565b829450505050505b92915050565b600060606000600260006001600088815260200190815260200160002060009054906101000a900467ffffffffffffffff1667ffffffffffffffff1667ffffffffffffffff168152602001908152602001600020600086815260200190815260200160002090506000600190505b848111610f1057600085821614158015610e55575060008260008381526020019081526020016000208054610e5190613cd5565b9050115b15610f045780826000838152602001908152602001600020808054610e7990613cd5565b80601f0160208091040260200160405190810160405280929190818152602001828054610ea590613cd5565b8015610ef25780601f10610ec757610100808354040283529160200191610ef2565b820191906000526020600020905b815481529060010190602001808311610ed557829003601f168201915b50505050509050935093505050610f29565b600181901b9050610e1d565b5060006040518060200160405280600081525092509250505b9250929050565b82610f3a816120e5565b610f4357600080fd5b604051806040016040528084815260200183815250600a60006001600088815260200190815260200160002060009054906101000a900467ffffffffffffffff1667ffffffffffffffff1667ffffffffffffffff16815260200190815260200160002060008681526020019081526020016000206000820151816000015560208201518160010155905050837f1d6f5e03d3f63eb58751986629a5439baee5079ff04f345becb66e23eb154e468484604051611000929190613a49565b60405180910390a250505050565b82611018816120e5565b61102157600080fd5b8282600460006001600089815260200190815260200160002060009054906101000a900467ffffffffffffffff1667ffffffffffffffff1667ffffffffffffffff1681526020019081526020016000206000878152602001908152602001600020918261108f9291906140a9565b50837fe379c1624ed7e714cc0937528a32359d69d5281337765313dba4e081b72d757884846040516110c29291906141a6565b60405180910390a250505050565b806110da816120e5565b6110e357600080fd5b60016000838152602001908152602001600020600081819054906101000a900467ffffffffffffffff168092919061111a906141ca565b91906101000a81548167ffffffffffffffff021916908367ffffffffffffffff16021790555050817fc6621ccb8f3f5a04bb6502154b2caf6adf5983fe76dfef1cfc9c42e3579db4446001600085815260200190815260200160002060009054906101000a900467ffffffffffffffff166040516111989190613b01565b60405180910390a25050565b6000806111b283603c611ee5565b905060008151036111c75760009150506111d4565b6111d0816126c4565b9150505b919050565b600080600760006001600087815260200190815260200160002060009054906101000a900467ffffffffffffffff1667ffffffffffffffff1667ffffffffffffffff1681526020019081526020016000206000858152602001908152602001600020600084815260200190815260200160002060009054906101000a900461ffff1661ffff161415905092915050565b6060600b60006001600087815260200190815260200160002060009054906101000a900467ffffffffffffffff1667ffffffffffffffff1667ffffffffffffffff168152602001908152602001600020600085815260200190815260200160002083836040516112da929190613c82565b908152602001604051809103902080546112f390613cd5565b80601f016020809104026020016040519081016040528092919081815260200182805461131f90613cd5565b801561136c5780601f106113415761010080835404028352916020019161136c565b820191906000526020600020905b81548152906001019060200180831161134f57829003601f168201915b505050505090509392505050565b6060600560006001600085815260200190815260200160002060009054906101000a900467ffffffffffffffff1667ffffffffffffffff1667ffffffffffffffff168152602001908152602001600020600083815260200190815260200160002080546113e690613cd5565b80601f016020809104026020016040519081016040528092919081815260200182805461141290613cd5565b801561145f5780601f106114345761010080835404028352916020019161145f565b820191906000526020600020905b81548152906001019060200180831161144257829003601f168201915b50505050509050919050565b83611475816120e5565b61147e57600080fd5b60008460018661148e9190613c1e565b161461149957600080fd5b828260026000600160008a815260200190815260200160002060009054906101000a900467ffffffffffffffff1667ffffffffffffffff1667ffffffffffffffff1681526020019081526020016000206000888152602001908152602001600020600087815260200190815260200160002091826115189291906140a9565b5083857faa121bbeef5f32f5961a2a28966e769023910fc9479059ee3495d4c1a696efe360405160405180910390a35050505050565b6060600960006001600085815260200190815260200160002060009054906101000a900467ffffffffffffffff1667ffffffffffffffff1667ffffffffffffffff168152602001908152602001600020600083815260200190815260200160002080546115ba90613cd5565b80601f01602080910402602001604051908101604052809291908181526020018280546115e690613cd5565b80156116335780601f1061160857610100808354040283529160200191611633565b820191906000526020600020905b81548152906001019060200180831161161657829003601f168201915b50505050509050919050565b6116476126e7565b6116516000612765565b565b8261165d816120e5565b61166657600080fd5b8282600960006001600089815260200190815260200160002060009054906101000a900467ffffffffffffffff1667ffffffffffffffff1667ffffffffffffffff168152602001908152602001600020600087815260200190815260200160002091826116d4929190613eb2565b50837fb7d29e911041e8d9b843369e890bcb72c9388692ba48b65ac54e7214c4c348f784846040516117079291906141fa565b60405180910390a250505050565b8261171f816120e5565b61172857600080fd5b837f65412581168e88a1e60c6459d7f44ae83ad0832e670826c05a4e2476b57af752848460405161175a9291906134fd565b60405180910390a2603c83036117ab57837f52d7d861f09ab3d26239d492e8968629f95e9e318cf0b73bfddc441522a15fd2611795846126c4565b6040516117a29190614273565b60405180910390a25b81600360006001600088815260200190815260200160002060009054906101000a900467ffffffffffffffff1667ffffffffffffffff1667ffffffffffffffff168152602001908152602001600020600086815260200190815260200160002060008581526020019081526020016000209081611828919061428e565b5050505050565b60008060009054906101000a900473ffffffffffffffffffffffffffffffffffffffff16905090565b60606000803073ffffffffffffffffffffffffffffffffffffffff16846040516118829190613bd8565b600060405180830381855afa9150503d80600081146118bd576040519150601f19603f3d011682016040523d82523d6000602084013e6118c2565b606091505b509150915081156118d75780925050506118df565b805160208201fd5b92915050565b6060600660006001600087815260200190815260200160002060009054906101000a900467ffffffffffffffff1667ffffffffffffffff1667ffffffffffffffff1681526020019081526020016000206000858152602001908152602001600020600084815260200190815260200160002060008361ffff1661ffff168152602001908152602001600020805461197b90613cd5565b80601f01602080910402602001604051908101604052809291908181526020018280546119a790613cd5565b80156119f45780601f106119c9576101008083540402835291602001916119f4565b820191906000526020600020905b8154815290600101906020018083116119d757829003601f168201915b505050505090509392505050565b6060600460006001600085815260200190815260200160002060009054906101000a900467ffffffffffffffff1667ffffffffffffffff1667ffffffffffffffff16815260200190815260200160002060008381526020019081526020016000208054611a6e90613cd5565b80601f0160208091040260200160405190810160405280929190818152602001828054611a9a90613cd5565b8015611ae75780601f10611abc57610100808354040283529160200191611ae7565b820191906000526020600020905b815481529060010190602001808311611aca57829003601f168201915b50505050509050919050565b60008060006001600085815260200190815260200160002060009054906101000a900467ffffffffffffffff169050600a60008267ffffffffffffffff1667ffffffffffffffff168152602001908152602001600020600085815260200190815260200160002060000154600a60008367ffffffffffffffff1667ffffffffffffffff1681526020019081526020016000206000868152602001908152602001600020600101549250925050915091565b82611bae816120e5565b611bb757600080fd5b60006001600086815260200190815260200160002060009054906101000a900467ffffffffffffffff1690506000600560008367ffffffffffffffff1667ffffffffffffffff16815260200190815260200160002060008781526020019081526020016000208054611c2890613cd5565b80601f0160208091040260200160405190810160405280929190818152602001828054611c5490613cd5565b8015611ca15780601f10611c7657610100808354040283529160200191611ca1565b820191906000526020600020905b815481529060010190602001808311611c8457829003601f168201915b505050505090508484600560008567ffffffffffffffff1667ffffffffffffffff16815260200190815260200160002060008981526020019081526020016000209182611cef9291906140a9565b50857f8f15ed4b723ef428f250961da8315675b507046737e19319fc1a4d81bfe87f85828787604051611d2493929190614360565b60405180910390a2505050505050565b81611d3e816120e5565b611d4757600080fd5b611d5b83603c611d5685612829565b611715565b505050565b60016020528060005260406000206000915054906101000a900467ffffffffffffffff1681565b82611d91816120e5565b611d9a57600080fd5b81600860006001600088815260200190815260200160002060009054906101000a900467ffffffffffffffff1667ffffffffffffffff1667ffffffffffffffff16815260200190815260200160002060008681526020019081526020016000206000857bffffffffffffffffffffffffffffffffffffffffffffffffffffffff19167bffffffffffffffffffffffffffffffffffffffffffffffffffffffff1916815260200190815260200160002060006101000a81548173ffffffffffffffffffffffffffffffffffffffff021916908373ffffffffffffffffffffffffffffffffffffffff160217905550827bffffffffffffffffffffffffffffffffffffffffffffffffffffffff1916847f7c69f06bea0bdef565b709e93a147836b0063ba2dd89f02d0b7e8d931e6a6daa84604051611ed791906133cd565b60405180910390a350505050565b6060600360006001600086815260200190815260200160002060009054906101000a900467ffffffffffffffff1667ffffffffffffffff1667ffffffffffffffff168152602001908152602001600020600084815260200190815260200160002060008381526020019081526020016000208054611f6290613cd5565b80601f0160208091040260200160405190810160405280929190818152602001828054611f8e90613cd5565b8015611fdb5780601f10611fb057610100808354040283529160200191611fdb565b820191906000526020600020905b815481529060010190602001808311611fbe57829003601f168201915b5050505050905092915050565b611ff06126e7565b600073ffffffffffffffffffffffffffffffffffffffff168173ffffffffffffffffffffffffffffffffffffffff160361205f576040517f08c379a00000000000000000000000000000000000000000000000000000000081526004016120569061440b565b60405180910390fd5b61206881612765565b50565b60007f59d1d43c000000000000000000000000000000000000000000000000000000007bffffffffffffffffffffffffffffffffffffffffffffffffffffffff1916827bffffffffffffffffffffffffffffffffffffffffffffffffffffffff191614806120de57506120dd8261288d565b5b9050919050565b60006120ef61182f565b73ffffffffffffffffffffffffffffffffffffffff163373ffffffffffffffffffffffffffffffffffffffff16149050919050565b61212c612fef565b828160000181905250818160c00181815250506121488161257e565b92915050565b6000816000015151826020015110159050919050565b6060612194826020015161218084600001518560200151612907565b84600001516129839092919063ffffffff16565b9050919050565b60606121cd8260a001518360a001518460c001516121b99190613c1e565b84600001516129839092919063ffffffff16565b9050919050565b6000815183511480156121f357506121f28360008460008751612a18565b5b905092915050565b600087805190602001209050600061221e8686896129839092919063ffffffff16565b905083156123cc576000600660008567ffffffffffffffff1667ffffffffffffffff16815260200190815260200160002060008c8152602001908152602001600020600084815260200190815260200160002060008a61ffff1661ffff168152602001908152602001600020805461229590613cd5565b90501461231f57600760008467ffffffffffffffff1667ffffffffffffffff16815260200190815260200160002060008b81526020019081526020016000206000838152602001908152602001600020600081819054906101000a900461ffff16809291906123039061442b565b91906101000a81548161ffff021916908361ffff160217905550505b600660008467ffffffffffffffff1667ffffffffffffffff16815260200190815260200160002060008b8152602001908152602001600020600083815260200190815260200160002060008961ffff1661ffff168152602001908152602001600020600061238d919061303a565b897f03528ed0c2a3ebc993b12ce3c16bb382f9c7d88ef7d8a1bf290eaf35955a12078a8a6040516123bf929190614463565b60405180910390a2612572565b6000600660008567ffffffffffffffff1667ffffffffffffffff16815260200190815260200160002060008c8152602001908152602001600020600084815260200190815260200160002060008a61ffff1661ffff168152602001908152602001600020805461243b90613cd5565b9050036124c557600760008467ffffffffffffffff1667ffffffffffffffff16815260200190815260200160002060008b81526020019081526020016000206000838152602001908152602001600020600081819054906101000a900461ffff16809291906124a990614493565b91906101000a81548161ffff021916908361ffff160217905550505b80600660008567ffffffffffffffff1667ffffffffffffffff16815260200190815260200160002060008c8152602001908152602001600020600084815260200190815260200160002060008a61ffff1661ffff1681526020019081526020016000209081612534919061428e565b50897f52a608b3303a48862d07a73d82fa221318c0027fbbcfb1b2329bface3f19ff2b8a8a84604051612569939291906144bd565b60405180910390a25b50505050505050505050565b8060c00151816020018181525050806000015151816020015110156126c15760006125b182600001518360200151612907565b82602001516125c09190614502565b90506125d9818360000151612a3c90919063ffffffff16565b826040019061ffff16908161ffff16815250506002816125f99190614502565b9050612612818360000151612a3c90919063ffffffff16565b826060019061ffff16908161ffff16815250506002816126329190614502565b905061264b818360000151612a6b90919063ffffffff16565b826080019063ffffffff16908163ffffffff168152505060048161266f9190614502565b9050600061268a828460000151612a3c90919063ffffffff16565b61ffff16905060028261269d9190614502565b9150818360a001818152505080826126b59190614502565b8360c001818152505050505b50565b600060148251146126d457600080fd5b600c6101000a6020830151049050919050565b6126ef612a9c565b73ffffffffffffffffffffffffffffffffffffffff1661270d61182f565b73ffffffffffffffffffffffffffffffffffffffff1614612763576040517f08c379a000000000000000000000000000000000000000000000000000000000815260040161275a90614582565b60405180910390fd5b565b60008060009054906101000a900473ffffffffffffffffffffffffffffffffffffffff169050816000806101000a81548173ffffffffffffffffffffffffffffffffffffffff021916908373ffffffffffffffffffffffffffffffffffffffff1602179055508173ffffffffffffffffffffffffffffffffffffffff168173ffffffffffffffffffffffffffffffffffffffff167f8be0079c531659141344cd1fd0a4f28419497f9722a3daafe3b4186f6b6457e060405160405180910390a35050565b6060601467ffffffffffffffff8111156128465761284561379b565b5b6040519080825280601f01601f1916602001820160405280156128785781602001600182028036833780820191505090505b509050600c6101000a82026020820152919050565b60007fc8690233000000000000000000000000000000000000000000000000000000007bffffffffffffffffffffffffffffffffffffffffffffffffffffffff1916827bffffffffffffffffffffffffffffffffffffffffffffffffffffffff1916148061290057506128ff82612aa4565b5b9050919050565b6000808290505b60011561296e5783518110612926576129256145a2565b5b600061293b8286612b1e90919063ffffffff16565b60ff16905060018161294d9190614502565b826129589190614502565b915060008103612968575061296e565b5061290e565b828161297a9190613c1e565b91505092915050565b6060835182846129939190614502565b111561299e57600080fd5b60008267ffffffffffffffff8111156129ba576129b961379b565b5b6040519080825280601f01601f1916602001820160405280156129ec5781602001600182028036833780820191505090505b5090506000806020830191508560208801019050612a0b828287612b49565b8293505050509392505050565b6000612a25848484612bad565b612a30878785612bad565b14905095945050505050565b60008251600283612a4d9190614502565b1115612a5857600080fd5b61ffff8260028501015116905092915050565b60008251600483612a7c9190614502565b1115612a8757600080fd5b63ffffffff8260048501015116905092915050565b600033905090565b60007f691f3431000000000000000000000000000000000000000000000000000000007bffffffffffffffffffffffffffffffffffffffffffffffffffffffff1916827bffffffffffffffffffffffffffffffffffffffffffffffffffffffff19161480612b175750612b1682612bd9565b5b9050919050565b6000828281518110612b3357612b32614014565b5b602001015160f81c60f81b60f81c905092915050565b5b60208110612b885781518352602083612b639190614502565b9250602082612b729190614502565b9150602081612b819190613c1e565b9050612b4a565b60006001826020036101000a0390508019835116818551168181178652505050505050565b600083518284612bbd9190614502565b1115612bc857600080fd5b818360208601012090509392505050565b60007f124a319c000000000000000000000000000000000000000000000000000000007bffffffffffffffffffffffffffffffffffffffffffffffffffffffff1916827bffffffffffffffffffffffffffffffffffffffffffffffffffffffff19161480612c4c5750612c4b82612c53565b5b9050919050565b60007fa8fa5682000000000000000000000000000000000000000000000000000000007bffffffffffffffffffffffffffffffffffffffffffffffffffffffff1916827bffffffffffffffffffffffffffffffffffffffffffffffffffffffff19161480612d1e57507f5c98042b000000000000000000000000000000000000000000000000000000007bffffffffffffffffffffffffffffffffffffffffffffffffffffffff1916827bffffffffffffffffffffffffffffffffffffffffffffffffffffffff1916145b80612d2e5750612d2d82612d35565b5b9050919050565b60007fbc1c58d1000000000000000000000000000000000000000000000000000000007bffffffffffffffffffffffffffffffffffffffffffffffffffffffff1916827bffffffffffffffffffffffffffffffffffffffffffffffffffffffff19161480612da85750612da782612daf565b5b9050919050565b60007f3b3b57de000000000000000000000000000000000000000000000000000000007bffffffffffffffffffffffffffffffffffffffffffffffffffffffff1916827bffffffffffffffffffffffffffffffffffffffffffffffffffffffff19161480612e7a57507ff1cb7e06000000000000000000000000000000000000000000000000000000007bffffffffffffffffffffffffffffffffffffffffffffffffffffffff1916827bffffffffffffffffffffffffffffffffffffffffffffffffffffffff1916145b80612e8a5750612e8982612e91565b5b9050919050565b60007f2203ab56000000000000000000000000000000000000000000000000000000007bffffffffffffffffffffffffffffffffffffffffffffffffffffffff1916827bffffffffffffffffffffffffffffffffffffffffffffffffffffffff19161480612f045750612f0382612f0b565b5b9050919050565b60007fd700ff33000000000000000000000000000000000000000000000000000000007bffffffffffffffffffffffffffffffffffffffffffffffffffffffff1916827bffffffffffffffffffffffffffffffffffffffffffffffffffffffff19161480612f7e5750612f7d82612f85565b5b9050919050565b60007f01ffc9a7000000000000000000000000000000000000000000000000000000007bffffffffffffffffffffffffffffffffffffffffffffffffffffffff1916827bffffffffffffffffffffffffffffffffffffffffffffffffffffffff1916149050919050565b6040518060e001604052806060815260200160008152602001600061ffff168152602001600061ffff168152602001600063ffffffff16815260200160008152602001600081525090565b50805461304690613cd5565b6000825580601f106130585750613077565b601f016020900490600052602060002090810190613076919061307a565b5b50565b5b8082111561309357600081600090555060010161307b565b5090565b6000604051905090565b600080fd5b600080fd5b60007fffffffff0000000000000000000000000000000000000000000000000000000082169050919050565b6130e0816130ab565b81146130eb57600080fd5b50565b6000813590506130fd816130d7565b92915050565b600060208284031215613119576131186130a1565b5b6000613127848285016130ee565b91505092915050565b60008115159050919050565b61314581613130565b82525050565b6000602082019050613160600083018461313c565b92915050565b6000819050919050565b61317981613166565b811461318457600080fd5b50565b60008135905061319681613170565b92915050565b600080fd5b600080fd5b600080fd5b60008083601f8401126131c1576131c061319c565b5b8235905067ffffffffffffffff8111156131de576131dd6131a1565b5b6020830191508360018202830111156131fa576131f96131a6565b5b9250929050565b60008060006040848603121561321a576132196130a1565b5b600061322886828701613187565b935050602084013567ffffffffffffffff811115613249576132486130a6565b5b613255868287016131ab565b92509250509250925092565b60008083601f8401126132775761327661319c565b5b8235905067ffffffffffffffff811115613294576132936131a1565b5b6020830191508360018202830111156132b0576132af6131a6565b5b9250929050565b6000806000806000606086880312156132d3576132d26130a1565b5b60006132e188828901613187565b955050602086013567ffffffffffffffff811115613302576133016130a6565b5b61330e88828901613261565b9450945050604086013567ffffffffffffffff811115613331576133306130a6565b5b61333d88828901613261565b92509250509295509295909350565b60008060408385031215613363576133626130a1565b5b600061337185828601613187565b9250506020613382858286016130ee565b9150509250929050565b600073ffffffffffffffffffffffffffffffffffffffff82169050919050565b60006133b78261338c565b9050919050565b6133c7816133ac565b82525050565b60006020820190506133e260008301846133be565b92915050565b6000819050919050565b6133fb816133e8565b811461340657600080fd5b50565b600081359050613418816133f2565b92915050565b60008060408385031215613435576134346130a1565b5b600061344385828601613187565b925050602061345485828601613409565b9150509250929050565b613467816133e8565b82525050565b600081519050919050565b600082825260208201905092915050565b60005b838110156134a757808201518184015260208101905061348c565b60008484015250505050565b6000601f19601f8301169050919050565b60006134cf8261346d565b6134d98185613478565b93506134e9818560208601613489565b6134f2816134b3565b840191505092915050565b6000604082019050613512600083018561345e565b818103602083015261352481846134c4565b90509392505050565b600080600060608486031215613546576135456130a1565b5b600061355486828701613187565b935050602061356586828701613187565b925050604061357686828701613187565b9150509250925092565b600060208284031215613596576135956130a1565b5b60006135a484828501613187565b91505092915050565b60006135b88261338c565b9050919050565b6135c8816135ad565b82525050565b60006020820190506135e360008301846135bf565b92915050565b60008060408385031215613600576135ff6130a1565b5b600061360e85828601613187565b925050602061361f85828601613187565b9150509250929050565b600080600060408486031215613642576136416130a1565b5b600061365086828701613187565b935050602084013567ffffffffffffffff811115613671576136706130a6565b5b61367d86828701613261565b92509250509250925092565b600081519050919050565b600082825260208201905092915050565b60006136b082613689565b6136ba8185613694565b93506136ca818560208601613489565b6136d3816134b3565b840191505092915050565b600060208201905081810360008301526136f881846136a5565b905092915050565b6000602082019050818103600083015261371a81846134c4565b905092915050565b6000806000806060858703121561373c5761373b6130a1565b5b600061374a87828801613187565b945050602061375b87828801613409565b935050604085013567ffffffffffffffff81111561377c5761377b6130a6565b5b613788878288016131ab565b925092505092959194509250565b600080fd5b7f4e487b7100000000000000000000000000000000000000000000000000000000600052604160045260246000fd5b6137d3826134b3565b810181811067ffffffffffffffff821117156137f2576137f161379b565b5b80604052505050565b6000613805613097565b905061381182826137ca565b919050565b600067ffffffffffffffff8211156138315761383061379b565b5b61383a826134b3565b9050602081019050919050565b82818337600083830152505050565b600061386961386484613816565b6137fb565b90508281526020810184848401111561388557613884613796565b5b613890848285613847565b509392505050565b600082601f8301126138ad576138ac61319c565b5b81356138bd848260208601613856565b91505092915050565b6000806000606084860312156138df576138de6130a1565b5b60006138ed86828701613187565b93505060206138fe86828701613409565b925050604084013567ffffffffffffffff81111561391f5761391e6130a6565b5b61392b86828701613898565b9150509250925092565b6000806040838503121561394c5761394b6130a1565b5b600083013567ffffffffffffffff81111561396a576139696130a6565b5b61397685828601613898565b925050602083013567ffffffffffffffff811115613997576139966130a6565b5b6139a385828601613898565b9150509250929050565b600061ffff82169050919050565b6139c4816139ad565b81146139cf57600080fd5b50565b6000813590506139e1816139bb565b92915050565b600080600060608486031215613a00576139ff6130a1565b5b6000613a0e86828701613187565b9350506020613a1f86828701613187565b9250506040613a30868287016139d2565b9150509250925092565b613a4381613166565b82525050565b6000604082019050613a5e6000830185613a3a565b613a6b6020830184613a3a565b9392505050565b613a7b816133ac565b8114613a8657600080fd5b50565b600081359050613a9881613a72565b92915050565b60008060408385031215613ab557613ab46130a1565b5b6000613ac385828601613187565b9250506020613ad485828601613a89565b9150509250929050565b600067ffffffffffffffff82169050919050565b613afb81613ade565b82525050565b6000602082019050613b166000830184613af2565b92915050565b600080600060608486031215613b3557613b346130a1565b5b6000613b4386828701613187565b9350506020613b54868287016130ee565b9250506040613b6586828701613a89565b9150509250925092565b600060208284031215613b8557613b846130a1565b5b6000613b9384828501613a89565b91505092915050565b600081905092915050565b6000613bb28261346d565b613bbc8185613b9c565b9350613bcc818560208601613489565b80840191505092915050565b6000613be48284613ba7565b915081905092915050565b7f4e487b7100000000000000000000000000000000000000000000000000000000600052601160045260246000fd5b6000613c29826133e8565b9150613c34836133e8565b9250828203905081811115613c4c57613c4b613bef565b5b92915050565b600081905092915050565b6000613c698385613c52565b9350613c76838584613847565b82840190509392505050565b6000613c8f828486613c5d565b91508190509392505050565b600082905092915050565b7f4e487b7100000000000000000000000000000000000000000000000000000000600052602260045260246000fd5b60006002820490506001821680613ced57607f821691505b602082108103613d0057613cff613ca6565b5b50919050565b60008190508160005260206000209050919050565b60006020601f8301049050919050565b600082821b905092915050565b600060088302613d687fffffffffffffffffffffffffffffffffffffffffffffffffffffffffffffffff82613d2b565b613d728683613d2b565b95508019841693508086168417925050509392505050565b6000819050919050565b6000613daf613daa613da5846133e8565b613d8a565b6133e8565b9050919050565b6000819050919050565b613dc983613d94565b613ddd613dd582613db6565b848454613d38565b825550505050565b600090565b613df2613de5565b613dfd818484613dc0565b505050565b5b81811015613e2157613e16600082613dea565b600181019050613e03565b5050565b601f821115613e6657613e3781613d06565b613e4084613d1b565b81016020851015613e4f578190505b613e63613e5b85613d1b565b830182613e02565b50505b505050565b600082821c905092915050565b6000613e8960001984600802613e6b565b1980831691505092915050565b6000613ea28383613e78565b9150826002028217905092915050565b613ebc8383613c9b565b67ffffffffffffffff811115613ed557613ed461379b565b5b613edf8254613cd5565b613eea828285613e25565b6000601f831160018114613f195760008415613f07578287013590505b613f118582613e96565b865550613f79565b601f198416613f2786613d06565b60005b82811015613f4f57848901358255600182019150602085019450602081019050613f2a565b86831015613f6c5784890135613f68601f891682613e78565b8355505b6001600288020188555050505b50505050505050565b6000613f8e8385613694565b9350613f9b838584613847565b613fa4836134b3565b840190509392505050565b60006040820190508181036000830152613fca818688613f82565b90508181036020830152613fdf818486613f82565b905095945050505050565b613ff3816130ab565b82525050565b600060208201905061400e6000830184613fea565b92915050565b7f4e487b7100000000000000000000000000000000000000000000000000000000600052603260045260246000fd5b600082905092915050565b60008190508160005260206000209050919050565b601f8211156140a4576140758161404e565b61407e84613d1b565b8101602085101561408d578190505b6140a161409985613d1b565b830182613e02565b50505b505050565b6140b38383614043565b67ffffffffffffffff8111156140cc576140cb61379b565b5b6140d68254613cd5565b6140e1828285614063565b6000601f83116001811461411057600084156140fe578287013590505b6141088582613e96565b865550614170565b601f19841661411e8661404e565b60005b8281101561414657848901358255600182019150602085019450602081019050614121565b86831015614163578489013561415f601f891682613e78565b8355505b6001600288020188555050505b50505050505050565b60006141858385613478565b9350614192838584613847565b61419b836134b3565b840190509392505050565b600060208201905081810360008301526141c1818486614179565b90509392505050565b60006141d582613ade565b915067ffffffffffffffff82036141ef576141ee613bef565b5b600182019050919050565b60006020820190508181036000830152614215818486613f82565b90509392505050565b600061423961423461422f8461338c565b613d8a565b61338c565b9050919050565b600061424b8261421e565b9050919050565b600061425d82614240565b9050919050565b61426d81614252565b82525050565b60006020820190506142886000830184614264565b92915050565b6142978261346d565b67ffffffffffffffff8111156142b0576142af61379b565b5b6142ba8254613cd5565b6142c5828285614063565b600060209050601f8311600181146142f857600084156142e6578287015190505b6142f08582613e96565b865550614358565b601f1984166143068661404e565b60005b8281101561432e57848901518255600182019150602085019450602081019050614309565b8683101561434b5784890151614347601f891682613e78565b8355505b6001600288020188555050505b505050505050565b6000604082019050818103600083015261437a81866134c4565b9050818103602083015261438f818486614179565b9050949350505050565b7f4f776e61626c653a206e6577206f776e657220697320746865207a65726f206160008201527f6464726573730000000000000000000000000000000000000000000000000000602082015250565b60006143f5602683613694565b915061440082614399565b604082019050919050565b60006020820190508181036000830152614424816143e8565b9050919050565b6000614436826139ad565b91506000820361444957614448613bef565b5b600182039050919050565b61445d816139ad565b82525050565b6000604082019050818103600083015261447d81856134c4565b905061448c6020830184614454565b9392505050565b600061449e826139ad565b915061ffff82036144b2576144b1613bef565b5b600182019050919050565b600060608201905081810360008301526144d781866134c4565b90506144e66020830185614454565b81810360408301526144f881846134c4565b9050949350505050565b600061450d826133e8565b9150614518836133e8565b92508282019050808211156145305761452f613bef565b5b92915050565b7f4f776e61626c653a2063616c6c6572206973206e6f7420746865206f776e6572600082015250565b600061456c602083613694565b915061457782614536565b602082019050919050565b6000602082019050818103600083015261459b8161455f565b9050919050565b7f4e487b7100000000000000000000000000000000000000000000000000000000600052600160045260246000fdfea26469706673582212209da960f0f13c1e6e395732d55016b20cfe4f3d51b5ffc32ab2a4aab5ff18f3b764736f6c63430008110033",
  "linkReferences": {},
  "deployedLinkReferences": {}
}