{
  "_format": "hh-sol-artifact-1",
  "contractName": "OwnedResolver",
  "sourceName": "@ensdomains/ens-contracts/contracts/resolvers/OwnedResolver.sol",
  "abi": [
    {
      "anonymous": false,
      "inputs": [
        {
          "indexed": true,
          "internalType": "bytes32",
          "name": "node",
          "type": "bytes32"
        },
        {
          "indexed": true,
          "internalType": "uint256",
          "name": "contentType",
          "type": "uint256"
        }
      ],
      "name": "ABIChanged",
      "type": "event"
    },
    {
      "anonymous": false,
      "inputs": [
        {
          "indexed": true,
          "internalType": "bytes32",
          "name": "node",
          "type": "bytes32"
        },
        {
          "indexed": false,
          "internalType": "address",
          "name": "a",
          "type": "address"
        }
      ],
      "name": "AddrChanged",
      "type": "event"
    },
    {
      "anonymous": false,
      "inputs": [
        {
          "indexed": true,
          "internalType": "bytes32",
          "name": "node",
          "type": "bytes32"
        },
        {
          "indexed": false,
          "internalType": "uint256",
          "name": "coinType",
          "type": "uint256"
        },
        {
          "indexed": false,
          "internalType": "bytes",
          "name": "newAddress",
          "type": "bytes"
        }
      ],
      "name": "AddressChanged",
      "type": "event"
    },
    {
      "anonymous": false,
      "inputs": [
        {
          "indexed": true,
          "internalType": "bytes32",
          "name": "node",
          "type": "bytes32"
        },
        {
          "indexed": false,
          "internalType": "bytes",
          "name": "hash",
          "type": "bytes"
        }
      ],
      "name": "ContenthashChanged",
      "type": "event"
    },
    {
      "anonymous": false,
      "inputs": [
        {
          "indexed": true,
          "internalType": "bytes32",
          "name": "node",
          "type": "bytes32"
        },
        {
          "indexed": false,
          "internalType": "bytes",
          "name": "name",
          "type": "bytes"
        },
        {
          "indexed": false,
          "internalType": "uint16",
          "name": "resource",
          "type": "uint16"
        },
        {
          "indexed": false,
          "internalType": "bytes",
          "name": "record",
          "type": "bytes"
        }
      ],
      "name": "DNSRecordChanged",
      "type": "event"
    },
    {
      "anonymous": false,
      "inputs": [
        {
          "indexed": true,
          "internalType": "bytes32",
          "name": "node",
          "type": "bytes32"
        },
        {
          "indexed": false,
          "internalType": "bytes",
          "name": "name",
          "type": "bytes"
        },
        {
          "indexed": false,
          "internalType": "uint16",
          "name": "resource",
          "type": "uint16"
        }
      ],
      "name": "DNSRecordDeleted",
      "type": "event"
    },
    {
      "anonymous": false,
      "inputs": [
        {
          "indexed": true,
          "internalType": "bytes32",
          "name": "node",
          "type": "bytes32"
        }
      ],
      "name": "DNSZoneCleared",
      "type": "event"
    },
    {
      "anonymous": false,
      "inputs": [
        {
          "indexed": true,
          "internalType": "bytes32",
          "name": "node",
          "type": "bytes32"
        },
        {
          "indexed": false,
          "internalType": "bytes",
          "name": "lastzonehash",
          "type": "bytes"
        },
        {
          "indexed": false,
          "internalType": "bytes",
          "name": "zonehash",
          "type": "bytes"
        }
      ],
      "name": "DNSZonehashChanged",
      "type": "event"
    },
    {
      "anonymous": false,
      "inputs": [
        {
          "indexed": true,
          "internalType": "bytes32",
          "name": "node",
          "type": "bytes32"
        },
        {
          "indexed": true,
          "internalType": "bytes4",
          "name": "interfaceID",
          "type": "bytes4"
        },
        {
          "indexed": false,
          "internalType": "address",
          "name": "implementer",
          "type": "address"
        }
      ],
      "name": "InterfaceChanged",
      "type": "event"
    },
    {
      "anonymous": false,
      "inputs": [
        {
          "indexed": true,
          "internalType": "bytes32",
          "name": "node",
          "type": "bytes32"
        },
        {
          "indexed": false,
          "internalType": "string",
          "name": "name",
          "type": "string"
        }
      ],
      "name": "NameChanged",
      "type": "event"
    },
    {
      "anonymous": false,
      "inputs": [
        {
          "indexed": true,
          "internalType": "address",
          "name": "previousOwner",
          "type": "address"
        },
        {
          "indexed": true,
          "internalType": "address",
          "name": "newOwner",
          "type": "address"
        }
      ],
      "name": "OwnershipTransferred",
      "type": "event"
    },
    {
      "anonymous": false,
      "inputs": [
        {
          "indexed": true,
          "internalType": "bytes32",
          "name": "node",
          "type": "bytes32"
        },
        {
          "indexed": false,
          "internalType": "bytes32",
          "name": "x",
          "type": "bytes32"
        },
        {
          "indexed": false,
          "internalType": "bytes32",
          "name": "y",
          "type": "bytes32"
        }
      ],
      "name": "PubkeyChanged",
      "type": "event"
    },
    {
      "anonymous": false,
      "inputs": [
        {
          "indexed": true,
          "internalType": "bytes32",
          "name": "node",
          "type": "bytes32"
        },
        {
          "indexed": true,
          "internalType": "string",
          "name": "indexedKey",
          "type": "string"
        },
        {
          "indexed": false,
          "internalType": "string",
          "name": "key",
          "type": "string"
        }
      ],
      "name": "TextChanged",
      "type": "event"
    },
    {
      "inputs": [
        {
          "internalType": "bytes32",
          "name": "node",
          "type": "bytes32"
        },
        {
          "internalType": "uint256",
          "name": "contentTypes",
          "type": "uint256"
        }
      ],
      "name": "ABI",
      "outputs": [
        {
          "internalType": "uint256",
          "name": "",
          "type": "uint256"
        },
        {
          "internalType": "bytes",
          "name": "",
          "type": "bytes"
        }
      ],
      "stateMutability": "view",
      "type": "function"
    },
    {
      "inputs": [
        {
          "internalType": "bytes32",
          "name": "node",
          "type": "bytes32"
        }
      ],
      "name": "addr",
      "outputs": [
        {
          "internalType": "address payable",
          "name": "",
          "type": "address"
        }
      ],
      "stateMutability": "view",
      "type": "function"
    },
    {
      "inputs": [
        {
          "internalType": "bytes32",
          "name": "node",
          "type": "bytes32"
        },
        {
          "internalType": "uint256",
          "name": "coinType",
          "type": "uint256"
        }
      ],
      "name": "addr",
      "outputs": [
        {
          "internalType": "bytes",
          "name": "",
          "type": "bytes"
        }
      ],
      "stateMutability": "view",
      "type": "function"
    },
    {
      "inputs": [
        {
          "internalType": "bytes32",
          "name": "node",
          "type": "bytes32"
        }
      ],
      "name": "clearDNSZone",
      "outputs": [],
      "stateMutability": "nonpayable",
      "type": "function"
    },
    {
      "inputs": [
        {
          "internalType": "bytes32",
          "name": "node",
          "type": "bytes32"
        }
      ],
      "name": "contenthash",
      "outputs": [
        {
          "internalType": "bytes",
          "name": "",
          "type": "bytes"
        }
      ],
      "stateMutability": "view",
      "type": "function"
    },
    {
      "inputs": [
        {
          "internalType": "bytes32",
          "name": "node",
          "type": "bytes32"
        },
        {
          "internalType": "bytes32",
          "name": "name",
          "type": "bytes32"
        },
        {
          "internalType": "uint16",
          "name": "resource",
          "type": "uint16"
        }
      ],
      "name": "dnsRecord",
      "outputs": [
        {
          "internalType": "bytes",
          "name": "",
          "type": "bytes"
        }
      ],
      "stateMutability": "view",
      "type": "function"
    },
    {
      "inputs": [
        {
          "internalType": "bytes32",
          "name": "node",
          "type": "bytes32"
        },
        {
          "internalType": "bytes32",
          "name": "name",
          "type": "bytes32"
        }
      ],
      "name": "hasDNSRecords",
      "outputs": [
        {
          "internalType": "bool",
          "name": "",
          "type": "bool"
        }
      ],
      "stateMutability": "view",
      "type": "function"
    },
    {
      "inputs": [
        {
          "internalType": "bytes32",
          "name": "node",
          "type": "bytes32"
        },
        {
          "internalType": "bytes4",
          "name": "interfaceID",
          "type": "bytes4"
        }
      ],
      "name": "interfaceImplementer",
      "outputs": [
        {
          "internalType": "address",
          "name": "",
          "type": "address"
        }
      ],
      "stateMutability": "view",
      "type": "function"
    },
    {
      "inputs": [
        {
          "internalType": "bytes32",
          "name": "node",
          "type": "bytes32"
        }
      ],
      "name": "name",
      "outputs": [
        {
          "internalType": "string",
          "name": "",
          "type": "string"
        }
      ],
      "stateMutability": "view",
      "type": "function"
    },
    {
      "inputs": [],
      "name": "owner",
      "outputs": [
        {
          "internalType": "address",
          "name": "",
          "type": "address"
        }
      ],
      "stateMutability": "view",
      "type": "function"
    },
    {
      "inputs": [
        {
          "internalType": "bytes32",
          "name": "node",
          "type": "bytes32"
        }
      ],
      "name": "pubkey",
      "outputs": [
        {
          "internalType": "bytes32",
          "name": "x",
          "type": "bytes32"
        },
        {
          "internalType": "bytes32",
          "name": "y",
          "type": "bytes32"
        }
      ],
      "stateMutability": "view",
      "type": "function"
    },
    {
      "inputs": [],
      "name": "renounceOwnership",
      "outputs": [],
      "stateMutability": "nonpayable",
      "type": "function"
    },
    {
      "inputs": [
        {
          "internalType": "bytes32",
          "name": "node",
          "type": "bytes32"
        },
        {
          "internalType": "uint256",
          "name": "contentType",
          "type": "uint256"
        },
        {
          "internalType": "bytes",
          "name": "data",
          "type": "bytes"
        }
      ],
      "name": "setABI",
      "outputs": [],
      "stateMutability": "nonpayable",
      "type": "function"
    },
    {
      "inputs": [
        {
          "internalType": "bytes32",
          "name": "node",
          "type": "bytes32"
        },
        {
          "internalType": "uint256",
          "name": "coinType",
          "type": "uint256"
        },
        {
          "internalType": "bytes",
          "name": "a",
          "type": "bytes"
        }
      ],
      "name": "setAddr",
      "outputs": [],
      "stateMutability": "nonpayable",
      "type": "function"
    },
    {
      "inputs": [
        {
          "internalType": "bytes32",
          "name": "node",
          "type": "bytes32"
        },
        {
          "internalType": "address",
          "name": "a",
          "type": "address"
        }
      ],
      "name": "setAddr",
      "outputs": [],
      "stateMutability": "nonpayable",
      "type": "function"
    },
    {
      "inputs": [
        {
          "internalType": "bytes32",
          "name": "node",
          "type": "bytes32"
        },
        {
          "internalType": "bytes",
          "name": "hash",
          "type": "bytes"
        }
      ],
      "name": "setContenthash",
      "outputs": [],
      "stateMutability": "nonpayable",
      "type": "function"
    },
    {
      "inputs": [
        {
          "internalType": "bytes32",
          "name": "node",
          "type": "bytes32"
        },
        {
          "internalType": "bytes",
          "name": "data",
          "type": "bytes"
        }
      ],
      "name": "setDNSRecords",
      "outputs": [],
      "stateMutability": "nonpayable",
      "type": "function"
    },
    {
      "inputs": [
        {
          "internalType": "bytes32",
          "name": "node",
          "type": "bytes32"
        },
        {
          "internalType": "bytes4",
          "name": "interfaceID",
          "type": "bytes4"
        },
        {
          "internalType": "address",
          "name": "implementer",
          "type": "address"
        }
      ],
      "name": "setInterface",
      "outputs": [],
      "stateMutability": "nonpayable",
      "type": "function"
    },
    {
      "inputs": [
        {
          "internalType": "bytes32",
          "name": "node",
          "type": "bytes32"
        },
        {
          "internalType": "string",
          "name": "newName",
          "type": "string"
        }
      ],
      "name": "setName",
      "outputs": [],
      "stateMutability": "nonpayable",
      "type": "function"
    },
    {
      "inputs": [
        {
          "internalType": "bytes32",
          "name": "node",
          "type": "bytes32"
        },
        {
          "internalType": "bytes32",
          "name": "x",
          "type": "bytes32"
        },
        {
          "internalType": "bytes32",
          "name": "y",
          "type": "bytes32"
        }
      ],
      "name": "setPubkey",
      "outputs": [],
      "stateMutability": "nonpayable",
      "type": "function"
    },
    {
      "inputs": [
        {
          "internalType": "bytes32",
          "name": "node",
          "type": "bytes32"
        },
        {
          "internalType": "string",
          "name": "key",
          "type": "string"
        },
        {
          "internalType": "string",
          "name": "value",
          "type": "string"
        }
      ],
      "name": "setText",
      "outputs": [],
      "stateMutability": "nonpayable",
      "type": "function"
    },
    {
      "inputs": [
        {
          "internalType": "bytes32",
          "name": "node",
          "type": "bytes32"
        },
        {
          "internalType": "bytes",
          "name": "hash",
          "type": "bytes"
        }
      ],
      "name": "setZonehash",
      "outputs": [],
      "stateMutability": "nonpayable",
      "type": "function"
    },
    {
      "inputs": [
        {
          "internalType": "bytes4",
          "name": "interfaceID",
          "type": "bytes4"
        }
      ],
      "name": "supportsInterface",
      "outputs": [
        {
          "internalType": "bool",
          "name": "",
          "type": "bool"
        }
      ],
      "stateMutability": "pure",
      "type": "function"
    },
    {
      "inputs": [
        {
          "internalType": "bytes32",
          "name": "node",
          "type": "bytes32"
        },
        {
          "internalType": "string",
          "name": "key",
          "type": "string"
        }
      ],
      "name": "text",
      "outputs": [
        {
          "internalType": "string",
          "name": "",
          "type": "string"
        }
      ],
      "stateMutability": "view",
      "type": "function"
    },
    {
      "inputs": [
        {
          "internalType": "address",
          "name": "newOwner",
          "type": "address"
        }
      ],
      "name": "transferOwnership",
      "outputs": [],
      "stateMutability": "nonpayable",
      "type": "function"
    },
    {
      "inputs": [
        {
          "internalType": "bytes32",
          "name": "node",
          "type": "bytes32"
        }
      ],
      "name": "zonehash",
      "outputs": [
        {
          "internalType": "bytes",
          "name": "",
          "type": "bytes"
        }
      ],
      "stateMutability": "view",
      "type": "function"
    }
  ],
  "bytecode": "0x608060405234801561001057600080fd5b5061001a3361001f565b61006f565b600080546001600160a01b038381166001600160a01b0319831681178455604051919092169283917f8be0079c531659141344cd1fd0a4f28419497f9722a3daafe3b4186f6b6457e09190a35050565b6129368061007e6000396000f3fe608060405234801561001057600080fd5b50600436106101ae5760003560e01c8063715018a6116100ee578063bc1c58d111610097578063d5fa2b0011610071578063d5fa2b0014610403578063e59d895d14610416578063f1cb7e0614610429578063f2fde38b1461043c57600080fd5b8063bc1c58d1146103a0578063c8690233146103b3578063ce3decdc146103f057600080fd5b80638da5cb5b116100c85780638da5cb5b1461035c578063a8fa56821461037a578063ad5780af1461038d57600080fd5b8063715018a61461032e57806377372213146103365780638b95dd711461034957600080fd5b8063304e6ade1161015b57806359d1d43c1161013557806359d1d43c146102d55780635c98042b146102f5578063623195b014610308578063691f34311461031b57600080fd5b8063304e6ade1461026f5780633b3b57de146102825780634cbf6ba41461029557600080fd5b8063124a319c1161018c578063124a319c146102035780632203ab561461023b57806329cd62ea1461025c57600080fd5b806301ffc9a7146101b35780630af179d7146101db57806310f13a8c146101f0575b600080fd5b6101c66101c13660046121ad565b61044f565b60405190151581526020015b60405180910390f35b6101ee6101e936600461220a565b610460565b005b6101ee6101fe366004612256565b61065e565b6102166102113660046122d0565b61071e565b60405173ffffffffffffffffffffffffffffffffffffffff90911681526020016101d2565b61024e6102493660046122fc565b610a9b565b6040516101d2929190612398565b6101ee61026a3660046123b1565b610bb6565b6101ee61027d36600461220a565b610c49565b6102166102903660046123dd565b610cbb565b6101c66102a33660046122fc565b600091825260076020908152604080842060058352818520548552825280842092845291905290205461ffff16151590565b6102e86102e336600461220a565b610cee565b6040516101d291906123f6565b6102e86103033660046123dd565b610db3565b6101ee610316366004612409565b610e55565b6102e86103293660046123dd565b610eeb565b6101ee610f08565b6101ee61034436600461220a565b610f9a565b6101ee61035736600461248b565b61100c565b60005473ffffffffffffffffffffffffffffffffffffffff16610216565b6102e861038836600461256d565b6110f7565b6101ee61039b3660046123dd565b61113a565b6102e86103ae3660046123dd565b6111ae565b6103db6103c13660046123dd565b6000908152600a6020526040902080546001909101549091565b604080519283526020830191909152016101d2565b6101ee6103fe36600461220a565b6111cb565b6101ee6104113660046125d1565b6112ea565b6101ee6104243660046125f4565b611324565b6102e86104373660046122fc565b611401565b6101ee61044a366004612630565b6114af565b600061045a826115df565b92915050565b600054839073ffffffffffffffffffffffffffffffffffffffff16331461048657600080fd5b6000806060806000806104d360008a8a8080601f01602080910402602001604051908101604052809392919081815260200183838082843760009201919091525092939250506116359050565b90505b805151602082015110156105f95761ffff861661053857806040015195506104fd81611696565b935083604051602001610510919061264b565b604051602081830303815290604052805190602001209150610531816116b7565b92506105eb565b600061054382611696565b9050816040015161ffff168761ffff16141580610567575061056585826116d3565b155b156105e9576105c28b86898d8d8080601f016020809104026020016040519081016040528093929190818152602001838380828437600092019190915250505060208801518c91506105ba908290612696565b8a51156116f1565b8160400151965081602001519550809450848051906020012092506105e6826116b7565b93505b505b6105f481611933565b6104d6565b50825115610653576106538984878b8b8080601f0160208091040260200160405190810160405280939291908181526020018383808284376000920191909152508b925061064b91508290508e612696565b8851156116f1565b505050505050505050565b600054859073ffffffffffffffffffffffffffffffffffffffff16331461068457600080fd5b8282600b600089815260200190815260200160002087876040516106a99291906126ad565b9081526040519081900360200190206106c3929091612017565b5084846040516106d49291906126ad565b6040518091039020867fd8c9334b1a9c2f9da342a0a2b32629c1a229b6445dad78947f674b44444a7550878760405161070e929190612706565b60405180910390a3505050505050565b60008281526008602090815260408083207fffffffff000000000000000000000000000000000000000000000000000000008516845290915281205473ffffffffffffffffffffffffffffffffffffffff16801561077d57905061045a565b600061078885610cbb565b905073ffffffffffffffffffffffffffffffffffffffff81166107b05760009250505061045a565b6040517f01ffc9a7000000000000000000000000000000000000000000000000000000006024820152600090819073ffffffffffffffffffffffffffffffffffffffff841690604401604080517fffffffffffffffffffffffffffffffffffffffffffffffffffffffffffffffe08184030181529181526020820180517bffffffffffffffffffffffffffffffffffffffffffffffffffffffff167f01ffc9a7000000000000000000000000000000000000000000000000000000001790525161087a919061264b565b600060405180830381855afa9150503d80600081146108b5576040519150601f19603f3d011682016040523d82523d6000602084013e6108ba565b606091505b50915091508115806108cd575060208151105b8061090f575080601f815181106108e6576108e661271a565b01602001517fff0000000000000000000000000000000000000000000000000000000000000016155b1561092157600094505050505061045a565b6040517fffffffff000000000000000000000000000000000000000000000000000000008716602482015273ffffffffffffffffffffffffffffffffffffffff841690604401604080517fffffffffffffffffffffffffffffffffffffffffffffffffffffffffffffffe08184030181529181526020820180517bffffffffffffffffffffffffffffffffffffffffffffffffffffffff167f01ffc9a700000000000000000000000000000000000000000000000000000000179052516109e8919061264b565b600060405180830381855afa9150503d8060008114610a23576040519150601f19603f3d011682016040523d82523d6000602084013e610a28565b606091505b509092509050811580610a3c575060208151105b80610a7e575080601f81518110610a5557610a5561271a565b01602001517fff0000000000000000000000000000000000000000000000000000000000000016155b15610a9057600094505050505061045a565b509095945050505050565b600082815260016020819052604082206060915b848111610b965780851615801590610adf575060008181526020839052604081208054610adb90612749565b9050115b15610b8e5780826000838152602001908152602001600020808054610b0390612749565b80601f0160208091040260200160405190810160405280929190818152602001828054610b2f90612749565b8015610b7c5780601f10610b5157610100808354040283529160200191610b7c565b820191906000526020600020905b815481529060010190602001808311610b5f57829003601f168201915b50505050509050935093505050610baf565b60011b610aaf565b5060006040518060200160405280600081525092509250505b9250929050565b600054839073ffffffffffffffffffffffffffffffffffffffff163314610bdc57600080fd5b60408051808201825284815260208082018581526000888152600a83528490209251835551600190920191909155815185815290810184905285917f1d6f5e03d3f63eb58751986629a5439baee5079ff04f345becb66e23eb154e4691015b60405180910390a250505050565b600054839073ffffffffffffffffffffffffffffffffffffffff163314610c6f57600080fd5b6000848152600360205260409020610c88908484612017565b50837fe379c1624ed7e714cc0937528a32359d69d5281337765313dba4e081b72d75788484604051610c3b929190612706565b600080610cc983603c611401565b9050805160001415610cde5750600092915050565b610ce781611a1b565b9392505050565b6060600b60008581526020019081526020016000208383604051610d139291906126ad565b90815260200160405180910390208054610d2c90612749565b80601f0160208091040260200160405190810160405280929190818152602001828054610d5890612749565b8015610da55780601f10610d7a57610100808354040283529160200191610da5565b820191906000526020600020905b815481529060010190602001808311610d8857829003601f168201915b505050505090509392505050565b6000818152600460205260409020805460609190610dd090612749565b80601f0160208091040260200160405190810160405280929190818152602001828054610dfc90612749565b8015610e495780601f10610e1e57610100808354040283529160200191610e49565b820191906000526020600020905b815481529060010190602001808311610e2c57829003601f168201915b50505050509050919050565b600054849073ffffffffffffffffffffffffffffffffffffffff163314610e7b57600080fd5b83610e87600182612696565b1615610e9257600080fd5b60008581526001602090815260408083208784529091529020610eb6908484612017565b50604051849086907faa121bbeef5f32f5961a2a28966e769023910fc9479059ee3495d4c1a696efe390600090a35050505050565b6000818152600960205260409020805460609190610dd090612749565b60005473ffffffffffffffffffffffffffffffffffffffff163314610f8e576040517f08c379a000000000000000000000000000000000000000000000000000000000815260206004820181905260248201527f4f776e61626c653a2063616c6c6572206973206e6f7420746865206f776e657260448201526064015b60405180910390fd5b610f986000611a43565b565b600054839073ffffffffffffffffffffffffffffffffffffffff163314610fc057600080fd5b6000848152600960205260409020610fd9908484612017565b50837fb7d29e911041e8d9b843369e890bcb72c9388692ba48b65ac54e7214c4c348f78484604051610c3b929190612706565b600054839073ffffffffffffffffffffffffffffffffffffffff16331461103257600080fd5b837f65412581168e88a1e60c6459d7f44ae83ad0832e670826c05a4e2476b57af7528484604051611064929190612398565b60405180910390a2603c8314156110c957837f52d7d861f09ab3d26239d492e8968629f95e9e318cf0b73bfddc441522a15fd26110a084611a1b565b60405173ffffffffffffffffffffffffffffffffffffffff909116815260200160405180910390a25b6000848152600260209081526040808320868452825290912083516110f0928501906120b9565b5050505050565b6000838152600660209081526040808320600583528184205484528252808320858452825280832061ffff851684529091529020805460609190610d2c90612749565b600054819073ffffffffffffffffffffffffffffffffffffffff16331461116057600080fd5b600082815260056020526040812080549161117a8361279d565b909155505060405182907fb757169b8492ca2f1c6619d9d76ce22803035c3b1d5f6930dffe7b127c1a198390600090a25050565b6000818152600360205260409020805460609190610dd090612749565b600054839073ffffffffffffffffffffffffffffffffffffffff1633146111f157600080fd5b6000848152600460205260408120805461120a90612749565b80601f016020809104026020016040519081016040528092919081815260200182805461123690612749565b80156112835780601f1061125857610100808354040283529160200191611283565b820191906000526020600020905b81548152906001019060200180831161126657829003601f168201915b50505060008881526004602052604090209293506112a692915086905085612017565b50847f8f15ed4b723ef428f250961da8315675b507046737e19319fc1a4d81bfe87f858286866040516112db939291906127d6565b60405180910390a25050505050565b600054829073ffffffffffffffffffffffffffffffffffffffff16331461131057600080fd5b61131f83603c61035785611ab8565b505050565b600054839073ffffffffffffffffffffffffffffffffffffffff16331461134a57600080fd5b60008481526008602090815260408083207fffffffff0000000000000000000000000000000000000000000000000000000087168085529083529281902080547fffffffffffffffffffffffff00000000000000000000000000000000000000001673ffffffffffffffffffffffffffffffffffffffff8716908117909155905190815286917f7c69f06bea0bdef565b709e93a147836b0063ba2dd89f02d0b7e8d931e6a6daa910160405180910390a350505050565b6000828152600260209081526040808320848452909152902080546060919061142990612749565b80601f016020809104026020016040519081016040528092919081815260200182805461145590612749565b80156114a25780601f10611477576101008083540402835291602001916114a2565b820191906000526020600020905b81548152906001019060200180831161148557829003601f168201915b5050505050905092915050565b60005473ffffffffffffffffffffffffffffffffffffffff163314611530576040517f08c379a000000000000000000000000000000000000000000000000000000000815260206004820181905260248201527f4f776e61626c653a2063616c6c6572206973206e6f7420746865206f776e65726044820152606401610f85565b73ffffffffffffffffffffffffffffffffffffffff81166115d3576040517f08c379a000000000000000000000000000000000000000000000000000000000815260206004820152602660248201527f4f776e61626c653a206e6577206f776e657220697320746865207a65726f206160448201527f64647265737300000000000000000000000000000000000000000000000000006064820152608401610f85565b6115dc81611a43565b50565b60007fffffffff0000000000000000000000000000000000000000000000000000000082167f59d1d43c00000000000000000000000000000000000000000000000000000000148061045a575061045a82611af1565b6116836040518060e001604052806060815260200160008152602001600061ffff168152602001600061ffff168152602001600063ffffffff16815260200160008152602001600081525090565b82815260c0810182905261045a81611933565b6020810151815160609161045a916116ae9082611b47565b84519190611ba6565b60a081015160c082015160609161045a916116ae908290612696565b600081518351148015610ce75750610ce78360008460008751611c1d565b60008781526005602090815260408220548851918901919091209091611718878787611ba6565b905083156118215760008a81526006602090815260408083208684528252808320858452825280832061ffff8c1684529091529020805461175890612749565b1590506117ac5760008a815260076020908152604080832086845282528083208584529091528120805461ffff169161179083612806565b91906101000a81548161ffff021916908361ffff160217905550505b60008a81526006602090815260408083208684528252808320858452825280832061ffff8c16845290915281206117e29161212d565b897f03528ed0c2a3ebc993b12ce3c16bb382f9c7d88ef7d8a1bf290eaf35955a12078a8a604051611814929190612842565b60405180910390a2611927565b60008a81526006602090815260408083208684528252808320858452825280832061ffff8c1684529091529020805461185990612749565b151590506118ae5760008a815260076020908152604080832086845282528083208584529091528120805461ffff169161189283612868565b91906101000a81548161ffff021916908361ffff160217905550505b60008a81526006602090815260408083208684528252808320858452825280832061ffff8c168452825290912082516118e9928401906120b9565b50897f52a608b3303a48862d07a73d82fa221318c0027fbbcfb1b2329bface3f19ff2b8a8a8460405161191e9392919061288a565b60405180910390a25b50505050505050505050565b60c0810151602082018190528151511161194a5750565b600061195e82600001518360200151611b47565b826020015161196d91906128b9565b825190915061197c9082611c40565b61ffff1660408301526119906002826128b9565b825190915061199f9082611c40565b61ffff1660608301526119b36002826128b9565b82519091506119c29082611c68565b63ffffffff1660808301526119d86004826128b9565b82519091506000906119ea9083611c40565b61ffff1690506119fb6002836128b9565b60a084018190529150611a0e81836128b9565b60c0909301929092525050565b60008151601414611a2b57600080fd5b50602001516c01000000000000000000000000900490565b6000805473ffffffffffffffffffffffffffffffffffffffff8381167fffffffffffffffffffffffff0000000000000000000000000000000000000000831681178455604051919092169283917f8be0079c531659141344cd1fd0a4f28419497f9722a3daafe3b4186f6b6457e09190a35050565b6040805160148082528183019092526060916020820181803683375050506c010000000000000000000000009290920260208301525090565b60007fffffffff0000000000000000000000000000000000000000000000000000000082167fc869023300000000000000000000000000000000000000000000000000000000148061045a575061045a82611c92565b6000815b83518110611b5b57611b5b6128d1565b6000611b678583611ce8565b60ff169050611b778160016128b9565b611b8190836128b9565b915080611b8e5750611b94565b50611b4b565b611b9e8382612696565b949350505050565b8251606090611bb583856128b9565b1115611bc057600080fd5b60008267ffffffffffffffff811115611bdb57611bdb61245c565b6040519080825280601f01601f191660200182016040528015611c05576020820181803683370190505b50905060208082019086860101610a90828287611d0c565b6000611c2a848484611d80565b611c35878785611d80565b149695505050505050565b8151600090611c508360026128b9565b1115611c5b57600080fd5b50016002015161ffff1690565b8151600090611c788360046128b9565b1115611c8357600080fd5b50016004015163ffffffff1690565b60007fffffffff0000000000000000000000000000000000000000000000000000000082167f691f343100000000000000000000000000000000000000000000000000000000148061045a575061045a82611da4565b6000828281518110611cfc57611cfc61271a565b016020015160f81c905092915050565b60208110611d445781518352611d236020846128b9565b9250611d306020836128b9565b9150611d3d602082612696565b9050611d0c565b905182516020929092036101000a7fffffffffffffffffffffffffffffffffffffffffffffffffffffffffffffffff0180199091169116179052565b8251600090611d8f83856128b9565b1115611d9a57600080fd5b5091016020012090565b60007fffffffff0000000000000000000000000000000000000000000000000000000082167f124a319c00000000000000000000000000000000000000000000000000000000148061045a575061045a8260007fffffffff0000000000000000000000000000000000000000000000000000000082167fa8fa5682000000000000000000000000000000000000000000000000000000001480611e8857507fffffffff0000000000000000000000000000000000000000000000000000000082167f5c98042b00000000000000000000000000000000000000000000000000000000145b8061045a575061045a8260007fffffffff0000000000000000000000000000000000000000000000000000000082167fbc1c58d100000000000000000000000000000000000000000000000000000000148061045a575061045a8260007fffffffff0000000000000000000000000000000000000000000000000000000082167f3b3b57de000000000000000000000000000000000000000000000000000000001480611f7657507fffffffff0000000000000000000000000000000000000000000000000000000082167ff1cb7e0600000000000000000000000000000000000000000000000000000000145b8061045a575061045a8260007fffffffff0000000000000000000000000000000000000000000000000000000082167f2203ab5600000000000000000000000000000000000000000000000000000000148061045a57507f01ffc9a7000000000000000000000000000000000000000000000000000000007fffffffff0000000000000000000000000000000000000000000000000000000083161461045a565b82805461202390612749565b90600052602060002090601f01602090048101928261204557600085556120a9565b82601f1061207c578280017fffffffffffffffffffffffffffffffffffffffffffffffffffffffffffffff008235161785556120a9565b828001600101855582156120a9579182015b828111156120a957823582559160200191906001019061208e565b506120b5929150612163565b5090565b8280546120c590612749565b90600052602060002090601f0160209004810192826120e757600085556120a9565b82601f1061210057805160ff19168380011785556120a9565b828001600101855582156120a9579182015b828111156120a9578251825591602001919060010190612112565b50805461213990612749565b6000825580601f10612149575050565b601f0160209004906000526020600020908101906115dc91905b5b808211156120b55760008155600101612164565b80357fffffffff00000000000000000000000000000000000000000000000000000000811681146121a857600080fd5b919050565b6000602082840312156121bf57600080fd5b610ce782612178565b60008083601f8401126121da57600080fd5b50813567ffffffffffffffff8111156121f257600080fd5b602083019150836020828501011115610baf57600080fd5b60008060006040848603121561221f57600080fd5b83359250602084013567ffffffffffffffff81111561223d57600080fd5b612249868287016121c8565b9497909650939450505050565b60008060008060006060868803121561226e57600080fd5b85359450602086013567ffffffffffffffff8082111561228d57600080fd5b61229989838a016121c8565b909650945060408801359150808211156122b257600080fd5b506122bf888289016121c8565b969995985093965092949392505050565b600080604083850312156122e357600080fd5b823591506122f360208401612178565b90509250929050565b6000806040838503121561230f57600080fd5b50508035926020909101359150565b60005b83811015612339578181015183820152602001612321565b83811115612348576000848401525b50505050565b6000815180845261236681602086016020860161231e565b601f017fffffffffffffffffffffffffffffffffffffffffffffffffffffffffffffffe0169290920160200192915050565b828152604060208201526000611b9e604083018461234e565b6000806000606084860312156123c657600080fd5b505081359360208301359350604090920135919050565b6000602082840312156123ef57600080fd5b5035919050565b602081526000610ce7602083018461234e565b6000806000806060858703121561241f57600080fd5b8435935060208501359250604085013567ffffffffffffffff81111561244457600080fd5b612450878288016121c8565b95989497509550505050565b7f4e487b7100000000000000000000000000000000000000000000000000000000600052604160045260246000fd5b6000806000606084860312156124a057600080fd5b8335925060208401359150604084013567ffffffffffffffff808211156124c657600080fd5b818601915086601f8301126124da57600080fd5b8135818111156124ec576124ec61245c565b604051601f82017fffffffffffffffffffffffffffffffffffffffffffffffffffffffffffffffe0908116603f011681019083821181831017156125325761253261245c565b8160405282815289602084870101111561254b57600080fd5b8260208601602083013760006020848301015280955050505050509250925092565b60008060006060848603121561258257600080fd5b8335925060208401359150604084013561ffff811681146125a257600080fd5b809150509250925092565b803573ffffffffffffffffffffffffffffffffffffffff811681146121a857600080fd5b600080604083850312156125e457600080fd5b823591506122f3602084016125ad565b60008060006060848603121561260957600080fd5b8335925061261960208501612178565b9150612627604085016125ad565b90509250925092565b60006020828403121561264257600080fd5b610ce7826125ad565b6000825161265d81846020870161231e565b9190910192915050565b7f4e487b7100000000000000000000000000000000000000000000000000000000600052601160045260246000fd5b6000828210156126a8576126a8612667565b500390565b8183823760009101908152919050565b8183528181602085013750600060208284010152600060207fffffffffffffffffffffffffffffffffffffffffffffffffffffffffffffffe0601f840116840101905092915050565b602081526000611b9e6020830184866126bd565b7f4e487b7100000000000000000000000000000000000000000000000000000000600052603260045260246000fd5b600181811c9082168061275d57607f821691505b60208210811415612797577f4e487b7100000000000000000000000000000000000000000000000000000000600052602260045260246000fd5b50919050565b60007fffffffffffffffffffffffffffffffffffffffffffffffffffffffffffffffff8214156127cf576127cf612667565b5060010190565b6040815260006127e9604083018661234e565b82810360208401526127fc8185876126bd565b9695505050505050565b600061ffff82168061281a5761281a612667565b7fffffffffffffffffffffffffffffffffffffffffffffffffffffffffffffffff0192915050565b604081526000612855604083018561234e565b905061ffff831660208301529392505050565b600061ffff8083168181141561288057612880612667565b6001019392505050565b60608152600061289d606083018661234e565b61ffff8516602084015282810360408401526127fc818561234e565b600082198211156128cc576128cc612667565b500190565b7f4e487b7100000000000000000000000000000000000000000000000000000000600052600160045260246000fdfea26469706673582212206ebbfe6ca2f012b5b03d839c0f9c23d7cd506cfb0d94b8dcbcda4ba7b0cc7a8964736f6c634300080a0033",
  "linkReferences": {},
  "deployedLinkReferences": {}
}